{
  "contractName": "Operations",
  "abi": [
    {
      "inputs": [],
      "stateMutability": "nonpayable",
      "type": "constructor"
    },
    {
      "anonymous": false,
      "inputs": [
        {
          "indexed": true,
          "internalType": "address",
          "name": "_admin",
          "type": "address"
        }
      ],
      "name": "AddedAdmin",
      "type": "event"
    },
    {
      "anonymous": false,
      "inputs": [
        {
          "indexed": true,
          "internalType": "address",
          "name": "_authorizer",
          "type": "address"
        }
      ],
      "name": "AddedAuthorizer",
      "type": "event"
    },
    {
      "anonymous": false,
      "inputs": [
        {
          "indexed": false,
          "internalType": "address",
          "name": "_user",
          "type": "address"
        }
      ],
      "name": "AddedBlackList",
      "type": "event"
    },
    {
      "anonymous": false,
      "inputs": [
        {
          "indexed": false,
          "internalType": "address",
          "name": "previousAdmin",
          "type": "address"
        },
        {
          "indexed": false,
          "internalType": "address",
          "name": "newAdmin",
          "type": "address"
        }
      ],
      "name": "AdminChanged",
      "type": "event"
    },
    {
      "anonymous": false,
      "inputs": [
        {
          "indexed": true,
          "internalType": "address",
          "name": "beacon",
          "type": "address"
        }
      ],
      "name": "BeaconUpgraded",
      "type": "event"
    },
    {
      "anonymous": false,
      "inputs": [
        {
          "indexed": false,
          "internalType": "address",
          "name": "_User",
          "type": "address"
        },
        {
          "indexed": false,
          "internalType": "uint256",
          "name": "_amount",
          "type": "uint256"
        }
      ],
      "name": "DestroyedBlackFunds",
      "type": "event"
    },
    {
      "anonymous": false,
      "inputs": [
        {
          "indexed": false,
          "internalType": "uint8",
          "name": "version",
          "type": "uint8"
        }
      ],
      "name": "Initialized",
      "type": "event"
    },
    {
      "anonymous": false,
      "inputs": [
        {
          "indexed": true,
          "internalType": "address",
          "name": "previousOwner",
          "type": "address"
        },
        {
          "indexed": true,
          "internalType": "address",
          "name": "newOwner",
          "type": "address"
        }
      ],
      "name": "OwnershipTransferred",
      "type": "event"
    },
    {
      "anonymous": false,
      "inputs": [
        {
          "indexed": false,
          "internalType": "address",
          "name": "account",
          "type": "address"
        }
      ],
      "name": "Paused",
      "type": "event"
    },
    {
      "anonymous": false,
      "inputs": [
        {
          "indexed": false,
          "internalType": "address",
          "name": "_user",
          "type": "address"
        }
      ],
      "name": "RemoveAddressList",
      "type": "event"
    },
    {
      "anonymous": false,
      "inputs": [
        {
          "indexed": true,
          "internalType": "address",
          "name": "_admin",
          "type": "address"
        }
      ],
      "name": "RemovedAdmin",
      "type": "event"
    },
    {
      "anonymous": false,
      "inputs": [
        {
          "indexed": true,
          "internalType": "address",
          "name": "_authorizer",
          "type": "address"
        }
      ],
      "name": "RemovedAuthorizer",
      "type": "event"
    },
    {
      "anonymous": false,
      "inputs": [
        {
          "indexed": false,
          "internalType": "address",
          "name": "_user",
          "type": "address"
        }
      ],
      "name": "RemovedBlackList",
      "type": "event"
    },
    {
      "anonymous": false,
      "inputs": [
        {
          "indexed": true,
          "internalType": "address",
          "name": "_user",
          "type": "address"
        }
      ],
      "name": "SetAddressList",
      "type": "event"
    },
    {
      "anonymous": false,
      "inputs": [
        {
          "indexed": false,
          "internalType": "address",
          "name": "account",
          "type": "address"
        }
      ],
      "name": "Unpaused",
      "type": "event"
    },
    {
      "anonymous": false,
      "inputs": [
        {
          "indexed": true,
          "internalType": "address",
          "name": "implementation",
          "type": "address"
        }
      ],
      "name": "Upgraded",
      "type": "event"
    },
    {
      "inputs": [
        {
          "internalType": "address",
          "name": "",
          "type": "address"
        }
      ],
      "name": "isAdmin",
      "outputs": [
        {
          "internalType": "bool",
          "name": "",
          "type": "bool"
        }
      ],
      "stateMutability": "view",
      "type": "function",
      "constant": true
    },
    {
      "inputs": [
        {
          "internalType": "address",
          "name": "",
          "type": "address"
        }
      ],
      "name": "isAuthorizer",
      "outputs": [
        {
          "internalType": "bool",
          "name": "",
          "type": "bool"
        }
      ],
      "stateMutability": "view",
      "type": "function",
      "constant": true
    },
    {
      "inputs": [
        {
          "internalType": "address",
          "name": "",
          "type": "address"
        }
      ],
      "name": "isBlackListed",
      "outputs": [
        {
          "internalType": "bool",
          "name": "",
          "type": "bool"
        }
      ],
      "stateMutability": "view",
      "type": "function",
      "constant": true
    },
    {
      "inputs": [
        {
          "internalType": "address",
          "name": "",
          "type": "address"
        }
      ],
      "name": "isUserListed",
      "outputs": [
        {
          "internalType": "bool",
          "name": "",
          "type": "bool"
        }
      ],
      "stateMutability": "view",
      "type": "function",
      "constant": true
    },
    {
      "inputs": [],
      "name": "owner",
      "outputs": [
        {
          "internalType": "address",
          "name": "",
          "type": "address"
        }
      ],
      "stateMutability": "view",
      "type": "function",
      "constant": true
    },
    {
      "inputs": [],
      "name": "paused",
      "outputs": [
        {
          "internalType": "bool",
          "name": "",
          "type": "bool"
        }
      ],
      "stateMutability": "view",
      "type": "function",
      "constant": true
    },
    {
      "inputs": [],
      "name": "proxiableUUID",
      "outputs": [
        {
          "internalType": "bytes32",
          "name": "",
          "type": "bytes32"
        }
      ],
      "stateMutability": "view",
      "type": "function",
      "constant": true
    },
    {
      "inputs": [],
      "name": "renounceOwnership",
      "outputs": [],
      "stateMutability": "nonpayable",
      "type": "function"
    },
    {
      "inputs": [
        {
          "internalType": "address",
          "name": "newOwner",
          "type": "address"
        }
      ],
      "name": "transferOwnership",
      "outputs": [],
      "stateMutability": "nonpayable",
      "type": "function"
    },
    {
      "inputs": [
        {
          "internalType": "address",
          "name": "newImplementation",
          "type": "address"
        }
      ],
      "name": "upgradeTo",
      "outputs": [],
      "stateMutability": "nonpayable",
      "type": "function"
    },
    {
      "inputs": [
        {
          "internalType": "address",
          "name": "newImplementation",
          "type": "address"
        },
        {
          "internalType": "bytes",
          "name": "data",
          "type": "bytes"
        }
      ],
      "name": "upgradeToAndCall",
      "outputs": [],
      "stateMutability": "payable",
      "type": "function",
      "payable": true
    },
    {
      "inputs": [],
      "name": "initialize",
      "outputs": [],
      "stateMutability": "nonpayable",
      "type": "function"
    },
    {
      "inputs": [
        {
          "internalType": "address",
          "name": "_AdminID",
          "type": "address"
        }
      ],
      "name": "AddAdmin",
      "outputs": [
        {
          "internalType": "bool",
          "name": "",
          "type": "bool"
        }
      ],
      "stateMutability": "nonpayable",
      "type": "function"
    },
    {
      "inputs": [
        {
          "internalType": "address",
          "name": "_addr",
          "type": "address"
        }
      ],
      "name": "RemoveAdmin",
      "outputs": [
        {
          "internalType": "bool",
          "name": "",
          "type": "bool"
        }
      ],
      "stateMutability": "nonpayable",
      "type": "function"
    },
    {
      "inputs": [],
      "name": "GetAdminList",
      "outputs": [
        {
          "internalType": "address[]",
          "name": "",
          "type": "address[]"
        }
      ],
      "stateMutability": "view",
      "type": "function",
      "constant": true
    },
    {
      "inputs": [
        {
          "internalType": "address",
          "name": "authorizer",
          "type": "address"
        }
      ],
      "name": "AddAuthorizer",
      "outputs": [
        {
          "internalType": "bool",
          "name": "",
          "type": "bool"
        }
      ],
      "stateMutability": "nonpayable",
      "type": "function"
    },
    {
      "inputs": [
        {
          "internalType": "address",
          "name": "_authorizer",
          "type": "address"
        }
      ],
      "name": "RemoveAuthorizer",
      "outputs": [
        {
          "internalType": "bool",
          "name": "",
          "type": "bool"
        }
      ],
      "stateMutability": "nonpayable",
      "type": "function"
    },
    {
      "inputs": [],
      "name": "GetAuthorizerList",
      "outputs": [
        {
          "internalType": "address[]",
          "name": "",
          "type": "address[]"
        }
      ],
      "stateMutability": "view",
      "type": "function",
      "constant": true
    },
    {
      "inputs": [
        {
          "internalType": "address",
          "name": "_addr",
          "type": "address"
        }
      ],
      "name": "SetUserList",
      "outputs": [
        {
          "internalType": "bool",
          "name": "",
          "type": "bool"
        }
      ],
      "stateMutability": "nonpayable",
      "type": "function"
    },
    {
      "inputs": [
        {
          "internalType": "address",
          "name": "_addr",
          "type": "address"
        }
      ],
      "name": "RemoveUserList",
      "outputs": [
        {
          "internalType": "bool",
          "name": "",
          "type": "bool"
        }
      ],
      "stateMutability": "nonpayable",
      "type": "function"
    },
    {
      "inputs": [
        {
          "internalType": "address",
          "name": "_addr",
          "type": "address"
        }
      ],
      "name": "CheckUserList",
      "outputs": [
        {
          "internalType": "bool",
          "name": "",
          "type": "bool"
        }
      ],
      "stateMutability": "view",
      "type": "function",
      "constant": true
    },
    {
      "inputs": [],
      "name": "GetUsersList",
      "outputs": [
        {
          "internalType": "address[]",
          "name": "",
          "type": "address[]"
        }
      ],
      "stateMutability": "view",
      "type": "function",
      "constant": true
    },
    {
      "inputs": [
        {
          "internalType": "address",
          "name": "_evilUser",
          "type": "address"
        }
      ],
      "name": "AddBlackList",
      "outputs": [],
      "stateMutability": "nonpayable",
      "type": "function"
    },
    {
      "inputs": [
        {
          "internalType": "address",
          "name": "_clearedUser",
          "type": "address"
        }
      ],
      "name": "RemoveBlackList",
      "outputs": [
        {
          "internalType": "bool",
          "name": "",
          "type": "bool"
        }
      ],
      "stateMutability": "nonpayable",
      "type": "function"
    },
    {
      "inputs": [
        {
          "internalType": "address",
          "name": "_addr",
          "type": "address"
        }
      ],
      "name": "isBlackListedAddress",
      "outputs": [
        {
          "internalType": "bool",
          "name": "",
          "type": "bool"
        }
      ],
      "stateMutability": "view",
      "type": "function",
      "constant": true
    },
    {
      "inputs": [],
      "name": "GetBlackListed",
      "outputs": [
        {
          "internalType": "address[]",
          "name": "",
          "type": "address[]"
        }
      ],
      "stateMutability": "view",
      "type": "function",
      "constant": true
    }
  ],
  "bytecode": "0x60a06040523073ffffffffffffffffffffffffffffffffffffffff1660809073ffffffffffffffffffffffffffffffffffffffff1660601b8152503480156200004757600080fd5b50620000586200005e60201b60201c565b62000209565b600060019054906101000a900460ff1615620000b1576040517f08c379a0000000000000000000000000000000000000000000000000000000008152600401620000a8906200015d565b60405180910390fd5b60ff801660008054906101000a900460ff1660ff161015620001235760ff6000806101000a81548160ff021916908360ff1602179055507f7f26b83ff96e1f2b6a682f133852f6798a09c465da95921460cefb384740249860ff6040516200011a91906200017f565b60405180910390a15b565b6000620001346027836200019c565b91506200014182620001ba565b604082019050919050565b6200015781620001ad565b82525050565b60006020820190508181036000830152620001788162000125565b9050919050565b60006020820190506200019660008301846200014c565b92915050565b600082825260208201905092915050565b600060ff82169050919050565b7f496e697469616c697a61626c653a20636f6e747261637420697320696e69746960008201527f616c697a696e6700000000000000000000000000000000000000000000000000602082015250565b60805160601c6143536200024460003960008181610cec01528181610d7b01528181610e9601528181610f250152610fd501526143536000f3fe6080604052600436106101815760003560e01c8063753f40ca116100d1578063dea0959d1161008a578063e58791ce11610064578063e58791ce146105c5578063ee2614a814610602578063f2fde38b1461063f578063f9dfc5051461066857610181565b8063dea0959d14610520578063e259b3611461054b578063e47d60601461058857610181565b8063753f40ca146103fc5780638129fc1c1461043957806386147c32146104505780638da5cb5b1461047b578063ad6de445146104a6578063b33fde1b146104e357610181565b806346e7ccac1161013e578063586130be11610118578063586130be146103405780635c975abb1461037d5780636f4d9817146103a8578063715018a6146103e557610181565b806346e7ccac146102bc5780634f1ef286146102f957806352d1902d1461031557610181565b8063091c18aa1461018657806321513130146101c35780632234edb6146101ee57806324d7806c1461022b57806333cbbef1146102685780633659cfe614610293575b600080fd5b34801561019257600080fd5b506101ad60048036038101906101a891906132c5565b610691565b6040516101ba91906137d9565b60405180910390f35b3480156101cf57600080fd5b506101d86106b2565b6040516101e591906137b7565b60405180910390f35b3480156101fa57600080fd5b50610215600480360381019061021091906132c5565b6107d6565b60405161022291906137d9565b60405180910390f35b34801561023757600080fd5b50610252600480360381019061024d91906132c5565b610ba5565b60405161025f91906137d9565b60405180910390f35b34801561027457600080fd5b5061027d610bc6565b60405161028a91906137b7565b60405180910390f35b34801561029f57600080fd5b506102ba60048036038101906102b591906132c5565b610cea565b005b3480156102c857600080fd5b506102e360048036038101906102de91906132c5565b610e73565b6040516102f091906137d9565b60405180910390f35b610313600480360381019061030e91906132f2565b610e94565b005b34801561032157600080fd5b5061032a610fd1565b60405161033791906137f4565b60405180910390f35b34801561034c57600080fd5b50610367600480360381019061036291906132c5565b61108a565b60405161037491906137d9565b60405180910390f35b34801561038957600080fd5b506103926112c3565b60405161039f91906137d9565b60405180910390f35b3480156103b457600080fd5b506103cf60048036038101906103ca91906132c5565b6112da565b6040516103dc91906137d9565b60405180910390f35b3480156103f157600080fd5b506103fa611331565b005b34801561040857600080fd5b50610423600480360381019061041e91906132c5565b611345565b60405161043091906137d9565b60405180910390f35b34801561044557600080fd5b5061044e61161d565b005b34801561045c57600080fd5b5061046561184f565b60405161047291906137b7565b60405180910390f35b34801561048757600080fd5b506104906118de565b60405161049d919061379c565b60405180910390f35b3480156104b257600080fd5b506104cd60048036038101906104c891906132c5565b611908565b6040516104da91906137d9565b60405180910390f35b3480156104ef57600080fd5b5061050a600480360381019061050591906132c5565b611b41565b60405161051791906137d9565b60405180910390f35b34801561052c57600080fd5b50610535611b98565b60405161054291906137b7565b60405180910390f35b34801561055757600080fd5b50610572600480360381019061056d91906132c5565b611cbc565b60405161057f91906137d9565b60405180910390f35b34801561059457600080fd5b506105af60048036038101906105aa91906132c5565b611f6b565b6040516105bc91906137d9565b60405180910390f35b3480156105d157600080fd5b506105ec60048036038101906105e791906132c5565b611f8c565b6040516105f991906137d9565b60405180910390f35b34801561060e57600080fd5b50610629600480360381019061062491906132c5565b6123b4565b60405161063691906137d9565b60405180910390f35b34801561064b57600080fd5b50610666600480360381019061066191906132c5565b61268c565b005b34801561067457600080fd5b5061068f600480360381019061068a91906132c5565b612710565b005b6101036020528060005260406000206000915054906101000a900460ff1681565b60606106bc612a76565b61010160008273ffffffffffffffffffffffffffffffffffffffff1673ffffffffffffffffffffffffffffffffffffffff16815260200190815260200160002060009054906101000a900460ff16610749576040517f08c379a0000000000000000000000000000000000000000000000000000000008152600401610740906138ac565b60405180910390fd5b60ff8054806020026020016040519081016040528092919081815260200182805480156107cb57602002820191906000526020600020905b8160009054906101000a900473ffffffffffffffffffffffffffffffffffffffff1673ffffffffffffffffffffffffffffffffffffffff1681526020019060010190808311610781575b505050505091505090565b60006107e0612a76565b61010160008273ffffffffffffffffffffffffffffffffffffffff1673ffffffffffffffffffffffffffffffffffffffff16815260200190815260200160002060009054906101000a900460ff1661086d576040517f08c379a0000000000000000000000000000000000000000000000000000000008152600401610864906138ac565b60405180910390fd5b82600073ffffffffffffffffffffffffffffffffffffffff168173ffffffffffffffffffffffffffffffffffffffff1614156108de576040517f08c379a00000000000000000000000000000000000000000000000000000000081526004016108d590613a4c565b60405180910390fd5b61010460008573ffffffffffffffffffffffffffffffffffffffff1673ffffffffffffffffffffffffffffffffffffffff16815260200190815260200160002060009054906101000a900460ff1661096b576040517f08c379a000000000000000000000000000000000000000000000000000000000815260040161096290613a8c565b60405180910390fd5b60005b600160ff805490506109809190613bad565b811015610ac1578473ffffffffffffffffffffffffffffffffffffffff1661010082815481106109b3576109b2613d6c565b5b9060005260206000200160009054906101000a900473ffffffffffffffffffffffffffffffffffffffff1673ffffffffffffffffffffffffffffffffffffffff161415610aae57610100600161010080549050610a109190613bad565b81548110610a2157610a20613d6c565b5b9060005260206000200160009054906101000a900473ffffffffffffffffffffffffffffffffffffffff166101008281548110610a6157610a60613d6c565b5b9060005260206000200160006101000a81548173ffffffffffffffffffffffffffffffffffffffff021916908373ffffffffffffffffffffffffffffffffffffffff160217905550610ac1565b8080610ab990613cc5565b91505061096e565b50610100805480610ad557610ad4613d3d565b5b6001900381819060005260206000200160006101000a81549073ffffffffffffffffffffffffffffffffffffffff02191690559055600061010460008673ffffffffffffffffffffffffffffffffffffffff1673ffffffffffffffffffffffffffffffffffffffff16815260200190815260200160002060006101000a81548160ff0219169083151502179055507fd7e9ec6e6ecd65492dce6bf513cd6867560d49544421d0783ddf06e76c24470c84604051610b92919061379c565b60405180910390a1600192505050919050565b6101016020528060005260406000206000915054906101000a900460ff1681565b6060610bd0612a76565b61010160008273ffffffffffffffffffffffffffffffffffffffff1673ffffffffffffffffffffffffffffffffffffffff16815260200190815260200160002060009054906101000a900460ff16610c5d576040517f08c379a0000000000000000000000000000000000000000000000000000000008152600401610c54906138ac565b60405180910390fd5b60fd805480602002602001604051908101604052809291908181526020018280548015610cdf57602002820191906000526020600020905b8160009054906101000a900473ffffffffffffffffffffffffffffffffffffffff1673ffffffffffffffffffffffffffffffffffffffff1681526020019060010190808311610c95575b505050505091505090565b7f000000000000000000000000000000000000000000000000000000000000000073ffffffffffffffffffffffffffffffffffffffff163073ffffffffffffffffffffffffffffffffffffffff161415610d79576040517f08c379a0000000000000000000000000000000000000000000000000000000008152600401610d70906138cc565b60405180910390fd5b7f000000000000000000000000000000000000000000000000000000000000000073ffffffffffffffffffffffffffffffffffffffff16610db8612a7e565b73ffffffffffffffffffffffffffffffffffffffff1614610e0e576040517f08c379a0000000000000000000000000000000000000000000000000000000008152600401610e05906138ec565b60405180910390fd5b610e1781612ad5565b610e7081600067ffffffffffffffff811115610e3657610e35613d9b565b5b6040519080825280601f01601f191660200182016040528015610e685781602001600182028036833780820191505090505b506000612ae0565b50565b6101026020528060005260406000206000915054906101000a900460ff1681565b7f000000000000000000000000000000000000000000000000000000000000000073ffffffffffffffffffffffffffffffffffffffff163073ffffffffffffffffffffffffffffffffffffffff161415610f23576040517f08c379a0000000000000000000000000000000000000000000000000000000008152600401610f1a906138cc565b60405180910390fd5b7f000000000000000000000000000000000000000000000000000000000000000073ffffffffffffffffffffffffffffffffffffffff16610f62612a7e565b73ffffffffffffffffffffffffffffffffffffffff1614610fb8576040517f08c379a0000000000000000000000000000000000000000000000000000000008152600401610faf906138ec565b60405180910390fd5b610fc182612ad5565b610fcd82826001612ae0565b5050565b60007f000000000000000000000000000000000000000000000000000000000000000073ffffffffffffffffffffffffffffffffffffffff163073ffffffffffffffffffffffffffffffffffffffff1614611061576040517f08c379a00000000000000000000000000000000000000000000000000000000081526004016110589061392c565b60405180910390fd5b7f360894a13ba1a3210667c828492db98dca3e2076cc3735a920a3ca505d382bbc60001b905090565b6000611094612c5d565b8161010360008273ffffffffffffffffffffffffffffffffffffffff1673ffffffffffffffffffffffffffffffffffffffff16815260200190815260200160002060009054906101000a900460ff16611122576040517f08c379a00000000000000000000000000000000000000000000000000000000081526004016111199061388c565b60405180910390fd5b8261010260008273ffffffffffffffffffffffffffffffffffffffff1673ffffffffffffffffffffffffffffffffffffffff16815260200190815260200160002060009054906101000a900460ff16156111b1576040517f08c379a00000000000000000000000000000000000000000000000000000000081526004016111a890613a2c565b60405180910390fd5b6111b9612cdb565b600161010260008673ffffffffffffffffffffffffffffffffffffffff1673ffffffffffffffffffffffffffffffffffffffff16815260200190815260200160002060006101000a81548160ff02191690831515021790555060fe849080600181540180825580915050600190039060005260206000200160009091909190916101000a81548173ffffffffffffffffffffffffffffffffffffffff021916908373ffffffffffffffffffffffffffffffffffffffff1602179055508373ffffffffffffffffffffffffffffffffffffffff167ff967f41cc1d0253371604dd23142273bdaf6513a10a58bc5d4cbcbce5913cd4860405160405180910390a2600192505050919050565b6000606560009054906101000a900460ff16905090565b600061010360008373ffffffffffffffffffffffffffffffffffffffff1673ffffffffffffffffffffffffffffffffffffffff16815260200190815260200160002060009054906101000a900460ff169050919050565b611339612c5d565b6113436000612d25565b565b600061134f612c5d565b8161010160008273ffffffffffffffffffffffffffffffffffffffff1673ffffffffffffffffffffffffffffffffffffffff16815260200190815260200160002060009054906101000a900460ff166113dd576040517f08c379a00000000000000000000000000000000000000000000000000000000081526004016113d4906138ac565b60405180910390fd5b60005b600160fd805490506113f29190613bad565b81101561152f578373ffffffffffffffffffffffffffffffffffffffff1660fd828154811061142457611423613d6c565b5b9060005260206000200160009054906101000a900473ffffffffffffffffffffffffffffffffffffffff1673ffffffffffffffffffffffffffffffffffffffff16141561151c5760fd600160fd8054905061147f9190613bad565b815481106114905761148f613d6c565b5b9060005260206000200160009054906101000a900473ffffffffffffffffffffffffffffffffffffffff1660fd82815481106114cf576114ce613d6c565b5b9060005260206000200160006101000a81548173ffffffffffffffffffffffffffffffffffffffff021916908373ffffffffffffffffffffffffffffffffffffffff16021790555061152f565b808061152790613cc5565b9150506113e0565b5060fd80548061154257611541613d3d565b5b6001900381819060005260206000200160006101000a81549073ffffffffffffffffffffffffffffffffffffffff02191690559055600061010160008573ffffffffffffffffffffffffffffffffffffffff1673ffffffffffffffffffffffffffffffffffffffff16815260200190815260200160002060006101000a81548160ff0219169083151502179055508273ffffffffffffffffffffffffffffffffffffffff167f3137a7fedbfedb7895dfa5a6812a4566dae9ded68d00aeec13c6ed1fa84a1c8060405160405180910390a26001915050919050565b60008060019054906101000a900460ff1615905080801561164e5750600160008054906101000a900460ff1660ff16105b8061167b575061165d30612deb565b15801561167a5750600160008054906101000a900460ff1660ff16145b5b6116ba576040517f08c379a00000000000000000000000000000000000000000000000000000000081526004016116b19061398c565b60405180910390fd5b60016000806101000a81548160ff021916908360ff16021790555080156116f7576001600060016101000a81548160ff0219169083151502179055505b6116ff612e0e565b611707612e67565b60016101036000611716612a76565b73ffffffffffffffffffffffffffffffffffffffff1673ffffffffffffffffffffffffffffffffffffffff16815260200190815260200160002060006101000a81548160ff02191690831515021790555060ff611771612a76565b9080600181540180825580915050600190039060005260206000200160009091909190916101000a81548173ffffffffffffffffffffffffffffffffffffffff021916908373ffffffffffffffffffffffffffffffffffffffff1602179055506117e16117dc612a76565b611908565b506117f26117ed612a76565b61108a565b50801561184c5760008060016101000a81548160ff0219169083151502179055507f7f26b83ff96e1f2b6a682f133852f6798a09c465da95921460cefb38474024986001604051611843919061380f565b60405180910390a15b50565b60606101008054806020026020016040519081016040528092919081815260200182805480156118d457602002820191906000526020600020905b8160009054906101000a900473ffffffffffffffffffffffffffffffffffffffff1673ffffffffffffffffffffffffffffffffffffffff168152602001906001019080831161188a575b5050505050905090565b6000603360009054906101000a900473ffffffffffffffffffffffffffffffffffffffff16905090565b6000611912612c5d565b8161010160008273ffffffffffffffffffffffffffffffffffffffff1673ffffffffffffffffffffffffffffffffffffffff16815260200190815260200160002060009054906101000a900460ff16156119a1576040517f08c379a000000000000000000000000000000000000000000000000000000000815260040161199890613acc565b60405180910390fd5b8261010360008273ffffffffffffffffffffffffffffffffffffffff1673ffffffffffffffffffffffffffffffffffffffff16815260200190815260200160002060009054906101000a900460ff16611a2f576040517f08c379a0000000000000000000000000000000000000000000000000000000008152600401611a269061388c565b60405180910390fd5b611a37612cdb565b60fd849080600181540180825580915050600190039060005260206000200160009091909190916101000a81548173ffffffffffffffffffffffffffffffffffffffff021916908373ffffffffffffffffffffffffffffffffffffffff160217905550600161010160008673ffffffffffffffffffffffffffffffffffffffff1673ffffffffffffffffffffffffffffffffffffffff16815260200190815260200160002060006101000a81548160ff0219169083151502179055508373ffffffffffffffffffffffffffffffffffffffff167f7849194239ab1d31b991b5436d81370256505cf25eaafbcccbc66acd1189691660405160405180910390a2600192505050919050565b600061010460008373ffffffffffffffffffffffffffffffffffffffff1673ffffffffffffffffffffffffffffffffffffffff16815260200190815260200160002060009054906101000a900460ff169050919050565b6060611ba2612a76565b61010160008273ffffffffffffffffffffffffffffffffffffffff1673ffffffffffffffffffffffffffffffffffffffff16815260200190815260200160002060009054906101000a900460ff16611c2f576040517f08c379a0000000000000000000000000000000000000000000000000000000008152600401611c26906138ac565b60405180910390fd5b60fe805480602002602001604051908101604052809291908181526020018280548015611cb157602002820191906000526020600020905b8160009054906101000a900473ffffffffffffffffffffffffffffffffffffffff1673ffffffffffffffffffffffffffffffffffffffff1681526020019060010190808311611c67575b505050505091505090565b6000611cc6612a76565b61010160008273ffffffffffffffffffffffffffffffffffffffff1673ffffffffffffffffffffffffffffffffffffffff16815260200190815260200160002060009054906101000a900460ff16611d53576040517f08c379a0000000000000000000000000000000000000000000000000000000008152600401611d4a906138ac565b60405180910390fd5b82600073ffffffffffffffffffffffffffffffffffffffff168173ffffffffffffffffffffffffffffffffffffffff161415611dc4576040517f08c379a0000000000000000000000000000000000000000000000000000000008152600401611dbb90613a4c565b60405180910390fd5b611dcc612cdb565b6001151561010360008673ffffffffffffffffffffffffffffffffffffffff1673ffffffffffffffffffffffffffffffffffffffff16815260200190815260200160002060009054906101000a900460ff1615151415611e61576040517f08c379a0000000000000000000000000000000000000000000000000000000008152600401611e589061390c565b60405180910390fd5b600161010360008673ffffffffffffffffffffffffffffffffffffffff1673ffffffffffffffffffffffffffffffffffffffff16815260200190815260200160002060006101000a81548160ff02191690831515021790555060ff849080600181540180825580915050600190039060005260206000200160009091909190916101000a81548173ffffffffffffffffffffffffffffffffffffffff021916908373ffffffffffffffffffffffffffffffffffffffff1602179055508373ffffffffffffffffffffffffffffffffffffffff167f04ebd75b2707fb46a2bd5561d3d4aaae47f748b158c62678904bfebde6bd66fa60405160405180910390a2600192505050919050565b6101046020528060005260406000206000915054906101000a900460ff1681565b6000611f96612a76565b61010160008273ffffffffffffffffffffffffffffffffffffffff1673ffffffffffffffffffffffffffffffffffffffff16815260200190815260200160002060009054906101000a900460ff16612023576040517f08c379a000000000000000000000000000000000000000000000000000000000815260040161201a906138ac565b60405180910390fd5b82600073ffffffffffffffffffffffffffffffffffffffff168173ffffffffffffffffffffffffffffffffffffffff161415612094576040517f08c379a000000000000000000000000000000000000000000000000000000000815260040161208b90613a4c565b60405180910390fd5b61010360008573ffffffffffffffffffffffffffffffffffffffff1673ffffffffffffffffffffffffffffffffffffffff16815260200190815260200160002060009054906101000a900460ff16612121576040517f08c379a000000000000000000000000000000000000000000000000000000000815260040161211890613a8c565b60405180910390fd5b61010160008573ffffffffffffffffffffffffffffffffffffffff1673ffffffffffffffffffffffffffffffffffffffff16815260200190815260200160002060009054906101000a900460ff161561217f5761217d84611345565b505b60005b600160ff805490506121949190613bad565b8110156122d1578473ffffffffffffffffffffffffffffffffffffffff1660ff82815481106121c6576121c5613d6c565b5b9060005260206000200160009054906101000a900473ffffffffffffffffffffffffffffffffffffffff1673ffffffffffffffffffffffffffffffffffffffff1614156122be5760ff600160ff805490506122219190613bad565b8154811061223257612231613d6c565b5b9060005260206000200160009054906101000a900473ffffffffffffffffffffffffffffffffffffffff1660ff828154811061227157612270613d6c565b5b9060005260206000200160006101000a81548173ffffffffffffffffffffffffffffffffffffffff021916908373ffffffffffffffffffffffffffffffffffffffff1602179055506122d1565b80806122c990613cc5565b915050612182565b5060ff8054806122e4576122e3613d3d565b5b6001900381819060005260206000200160006101000a81549073ffffffffffffffffffffffffffffffffffffffff02191690559055600061010360008673ffffffffffffffffffffffffffffffffffffffff1673ffffffffffffffffffffffffffffffffffffffff16815260200190815260200160002060006101000a81548160ff0219169083151502179055507fe7c4f3734af7d1c6ebf990b3b403fba2d34b0811be0bf983c6f0259973118cff846040516123a1919061379c565b60405180910390a1600192505050919050565b60006123be612c5d565b8161010260008273ffffffffffffffffffffffffffffffffffffffff1673ffffffffffffffffffffffffffffffffffffffff16815260200190815260200160002060009054906101000a900460ff1661244c576040517f08c379a00000000000000000000000000000000000000000000000000000000081526004016124439061384c565b60405180910390fd5b60005b600160fe805490506124619190613bad565b81101561259e578373ffffffffffffffffffffffffffffffffffffffff1660fe828154811061249357612492613d6c565b5b9060005260206000200160009054906101000a900473ffffffffffffffffffffffffffffffffffffffff1673ffffffffffffffffffffffffffffffffffffffff16141561258b5760fe600160fe805490506124ee9190613bad565b815481106124ff576124fe613d6c565b5b9060005260206000200160009054906101000a900473ffffffffffffffffffffffffffffffffffffffff1660fe828154811061253e5761253d613d6c565b5b9060005260206000200160006101000a81548173ffffffffffffffffffffffffffffffffffffffff021916908373ffffffffffffffffffffffffffffffffffffffff16021790555061259e565b808061259690613cc5565b91505061244f565b5060fe8054806125b1576125b0613d3d565b5b6001900381819060005260206000200160006101000a81549073ffffffffffffffffffffffffffffffffffffffff02191690559055600061010260008573ffffffffffffffffffffffffffffffffffffffff1673ffffffffffffffffffffffffffffffffffffffff16815260200190815260200160002060006101000a81548160ff0219169083151502179055508273ffffffffffffffffffffffffffffffffffffffff167f16ff9ceec5934dbaafd95c8f14cc9a7e9007889c2fa6b55696785f7a0f10635760405160405180910390a26001915050919050565b612694612c5d565b600073ffffffffffffffffffffffffffffffffffffffff168173ffffffffffffffffffffffffffffffffffffffff161415612704576040517f08c379a00000000000000000000000000000000000000000000000000000000081526004016126fb9061386c565b60405180910390fd5b61270d81612d25565b50565b612718612a76565b61010160008273ffffffffffffffffffffffffffffffffffffffff1673ffffffffffffffffffffffffffffffffffffffff16815260200190815260200160002060009054906101000a900460ff166127a5576040517f08c379a000000000000000000000000000000000000000000000000000000000815260040161279c906138ac565b60405180910390fd5b8161010360008273ffffffffffffffffffffffffffffffffffffffff1673ffffffffffffffffffffffffffffffffffffffff16815260200190815260200160002060009054906101000a900460ff16612833576040517f08c379a000000000000000000000000000000000000000000000000000000000815260040161282a9061388c565b60405180910390fd5b61010460008473ffffffffffffffffffffffffffffffffffffffff1673ffffffffffffffffffffffffffffffffffffffff16815260200190815260200160002060009054906101000a900460ff16156128c1576040517f08c379a00000000000000000000000000000000000000000000000000000000081526004016128b8906139ac565b60405180910390fd5b61010160008473ffffffffffffffffffffffffffffffffffffffff1673ffffffffffffffffffffffffffffffffffffffff16815260200190815260200160002060009054906101000a900460ff161561291f5761291d83611345565b505b61010260008473ffffffffffffffffffffffffffffffffffffffff1673ffffffffffffffffffffffffffffffffffffffff16815260200190815260200160002060009054906101000a900460ff161561297d5761297b836123b4565b505b610100839080600181540180825580915050600190039060005260206000200160009091909190916101000a81548173ffffffffffffffffffffffffffffffffffffffff021916908373ffffffffffffffffffffffffffffffffffffffff160217905550600161010460008573ffffffffffffffffffffffffffffffffffffffff1673ffffffffffffffffffffffffffffffffffffffff16815260200190815260200160002060006101000a81548160ff0219169083151502179055507f42e160154868087d6bfdc0ca23d96a1c1cfa32f1b72ba9ba27b69b98a0d819dc83604051612a69919061379c565b60405180910390a1505050565b600033905090565b6000612aac7f360894a13ba1a3210667c828492db98dca3e2076cc3735a920a3ca505d382bbc60001b612ec0565b60000160009054906101000a900473ffffffffffffffffffffffffffffffffffffffff16905090565b612add612c5d565b50565b612b0c7f4910fdfa16fed3260ed0e7147f7cc6da11a60208b5b9406d12a635614ffd914360001b612eca565b60000160009054906101000a900460ff1615612b3057612b2b83612ed4565b612c58565b8273ffffffffffffffffffffffffffffffffffffffff166352d1902d6040518163ffffffff1660e01b815260040160206040518083038186803b158015612b7657600080fd5b505afa925050508015612ba757506040513d601f19601f82011682018060405250810190612ba4919061334e565b60015b612be6576040517f08c379a0000000000000000000000000000000000000000000000000000000008152600401612bdd906139cc565b60405180910390fd5b7f360894a13ba1a3210667c828492db98dca3e2076cc3735a920a3ca505d382bbc60001b8114612c4b576040517f08c379a0000000000000000000000000000000000000000000000000000000008152600401612c429061396c565b60405180910390fd5b50612c57838383612f8d565b5b505050565b612c65612a76565b73ffffffffffffffffffffffffffffffffffffffff16612c836118de565b73ffffffffffffffffffffffffffffffffffffffff1614612cd9576040517f08c379a0000000000000000000000000000000000000000000000000000000008152600401612cd090613a0c565b60405180910390fd5b565b612ce36112c3565b15612d23576040517f08c379a0000000000000000000000000000000000000000000000000000000008152600401612d1a9061394c565b60405180910390fd5b565b6000603360009054906101000a900473ffffffffffffffffffffffffffffffffffffffff16905081603360006101000a81548173ffffffffffffffffffffffffffffffffffffffff021916908373ffffffffffffffffffffffffffffffffffffffff1602179055508173ffffffffffffffffffffffffffffffffffffffff168173ffffffffffffffffffffffffffffffffffffffff167f8be0079c531659141344cd1fd0a4f28419497f9722a3daafe3b4186f6b6457e060405160405180910390a35050565b6000808273ffffffffffffffffffffffffffffffffffffffff163b119050919050565b600060019054906101000a900460ff16612e5d576040517f08c379a0000000000000000000000000000000000000000000000000000000008152600401612e5490613aac565b60405180910390fd5b612e65612fb9565b565b600060019054906101000a900460ff16612eb6576040517f08c379a0000000000000000000000000000000000000000000000000000000008152600401612ead90613aac565b60405180910390fd5b612ebe61301a565b565b6000819050919050565b6000819050919050565b612edd81612deb565b612f1c576040517f08c379a0000000000000000000000000000000000000000000000000000000008152600401612f13906139ec565b60405180910390fd5b80612f497f360894a13ba1a3210667c828492db98dca3e2076cc3735a920a3ca505d382bbc60001b612ec0565b60000160006101000a81548173ffffffffffffffffffffffffffffffffffffffff021916908373ffffffffffffffffffffffffffffffffffffffff16021790555050565b612f9683613086565b600082511180612fa35750805b15612fb457612fb283836130d5565b505b505050565b600060019054906101000a900460ff16613008576040517f08c379a0000000000000000000000000000000000000000000000000000000008152600401612fff90613aac565b60405180910390fd5b613018613013612a76565b612d25565b565b600060019054906101000a900460ff16613069576040517f08c379a000000000000000000000000000000000000000000000000000000000815260040161306090613aac565b60405180910390fd5b6000606560006101000a81548160ff021916908315150217905550565b61308f81612ed4565b8073ffffffffffffffffffffffffffffffffffffffff167fbc7cd75a20ee27fd9adebab32041f755214dbc6bffa90cc0225b39da2e5c2d3b60405160405180910390a250565b60606130e083612deb565b61311f576040517f08c379a000000000000000000000000000000000000000000000000000000000815260040161311690613a6c565b60405180910390fd5b6000808473ffffffffffffffffffffffffffffffffffffffff16846040516131479190613785565b600060405180830381855af49150503d8060008114613182576040519150601f19603f3d011682016040523d82523d6000602084013e613187565b606091505b50915091506131af82826040518060600160405280602781526020016142f7602791396131b9565b9250505092915050565b606083156131c9578290506131d4565b6131d383836131db565b5b9392505050565b6000825111156131ee5781518083602001fd5b806040517f08c379a0000000000000000000000000000000000000000000000000000000008152600401613222919061382a565b60405180910390fd5b600061323e61323984613b11565b613aec565b90508281526020810184848401111561325a57613259613dcf565b5b613265848285613c52565b509392505050565b60008135905061327c816142c8565b92915050565b600081519050613291816142df565b92915050565b600082601f8301126132ac576132ab613dca565b5b81356132bc84826020860161322b565b91505092915050565b6000602082840312156132db576132da613dd9565b5b60006132e98482850161326d565b91505092915050565b6000806040838503121561330957613308613dd9565b5b60006133178582860161326d565b925050602083013567ffffffffffffffff81111561333857613337613dd4565b5b61334485828601613297565b9150509250929050565b60006020828403121561336457613363613dd9565b5b600061337284828501613282565b91505092915050565b60006133878383613393565b60208301905092915050565b61339c81613be1565b82525050565b6133ab81613be1565b82525050565b60006133bc82613b52565b6133c68185613b80565b93506133d183613b42565b8060005b838110156134025781516133e9888261337b565b97506133f483613b73565b9250506001810190506133d5565b5085935050505092915050565b61341881613bf3565b82525050565b61342781613bff565b82525050565b600061343882613b5d565b6134428185613b91565b9350613452818560208601613c61565b80840191505092915050565b61346781613c40565b82525050565b600061347882613b68565b6134828185613b9c565b9350613492818560208601613c61565b61349b81613dde565b840191505092915050565b60006134b3601683613b9c565b91506134be82613def565b602082019050919050565b60006134d6602683613b9c565b91506134e182613e18565b604082019050919050565b60006134f9601283613b9c565b915061350482613e67565b602082019050919050565b600061351c601483613b9c565b915061352782613e90565b602082019050919050565b600061353f602c83613b9c565b915061354a82613eb9565b604082019050919050565b6000613562602c83613b9c565b915061356d82613f08565b604082019050919050565b6000613585601c83613b9c565b915061359082613f57565b602082019050919050565b60006135a8603883613b9c565b91506135b382613f80565b604082019050919050565b60006135cb601083613b9c565b91506135d682613fcf565b602082019050919050565b60006135ee602983613b9c565b91506135f982613ff8565b604082019050919050565b6000613611602e83613b9c565b915061361c82614047565b604082019050919050565b6000613634601883613b9c565b915061363f82614096565b602082019050919050565b6000613657602e83613b9c565b9150613662826140bf565b604082019050919050565b600061367a602d83613b9c565b91506136858261410e565b604082019050919050565b600061369d602083613b9c565b91506136a88261415d565b602082019050919050565b60006136c0601a83613b9c565b91506136cb82614186565b602082019050919050565b60006136e3601383613b9c565b91506136ee826141af565b602082019050919050565b6000613706602683613b9c565b9150613711826141d8565b604082019050919050565b6000613729601983613b9c565b915061373482614227565b602082019050919050565b600061374c602b83613b9c565b915061375782614250565b604082019050919050565b600061376f601583613b9c565b915061377a8261429f565b602082019050919050565b6000613791828461342d565b915081905092915050565b60006020820190506137b160008301846133a2565b92915050565b600060208201905081810360008301526137d181846133b1565b905092915050565b60006020820190506137ee600083018461340f565b92915050565b6000602082019050613809600083018461341e565b92915050565b6000602082019050613824600083018461345e565b92915050565b60006020820190508181036000830152613844818461346d565b905092915050565b60006020820190508181036000830152613865816134a6565b9050919050565b60006020820190508181036000830152613885816134c9565b9050919050565b600060208201905081810360008301526138a5816134ec565b9050919050565b600060208201905081810360008301526138c58161350f565b9050919050565b600060208201905081810360008301526138e581613532565b9050919050565b6000602082019050818103600083015261390581613555565b9050919050565b6000602082019050818103600083015261392581613578565b9050919050565b600060208201905081810360008301526139458161359b565b9050919050565b60006020820190508181036000830152613965816135be565b9050919050565b60006020820190508181036000830152613985816135e1565b9050919050565b600060208201905081810360008301526139a581613604565b9050919050565b600060208201905081810360008301526139c581613627565b9050919050565b600060208201905081810360008301526139e58161364a565b9050919050565b60006020820190508181036000830152613a058161366d565b9050919050565b60006020820190508181036000830152613a2581613690565b9050919050565b60006020820190508181036000830152613a45816136b3565b9050919050565b60006020820190508181036000830152613a65816136d6565b9050919050565b60006020820190508181036000830152613a85816136f9565b9050919050565b60006020820190508181036000830152613aa58161371c565b9050919050565b60006020820190508181036000830152613ac58161373f565b9050919050565b60006020820190508181036000830152613ae581613762565b9050919050565b6000613af6613b07565b9050613b028282613c94565b919050565b6000604051905090565b600067ffffffffffffffff821115613b2c57613b2b613d9b565b5b613b3582613dde565b9050602081019050919050565b6000819050602082019050919050565b600081519050919050565b600081519050919050565b600081519050919050565b6000602082019050919050565b600082825260208201905092915050565b600081905092915050565b600082825260208201905092915050565b6000613bb882613c29565b9150613bc383613c29565b925082821015613bd657613bd5613d0e565b5b828203905092915050565b6000613bec82613c09565b9050919050565b60008115159050919050565b6000819050919050565b600073ffffffffffffffffffffffffffffffffffffffff82169050919050565b6000819050919050565b600060ff82169050919050565b6000613c4b82613c33565b9050919050565b82818337600083830152505050565b60005b83811015613c7f578082015181840152602081019050613c64565b83811115613c8e576000848401525b50505050565b613c9d82613dde565b810181811067ffffffffffffffff82111715613cbc57613cbb613d9b565b5b80604052505050565b6000613cd082613c29565b91507fffffffffffffffffffffffffffffffffffffffffffffffffffffffffffffffff821415613d0357613d02613d0e565b5b600182019050919050565b7f4e487b7100000000000000000000000000000000000000000000000000000000600052601160045260246000fd5b7f4e487b7100000000000000000000000000000000000000000000000000000000600052603160045260246000fd5b7f4e487b7100000000000000000000000000000000000000000000000000000000600052603260045260246000fd5b7f4e487b7100000000000000000000000000000000000000000000000000000000600052604160045260246000fd5b600080fd5b600080fd5b600080fd5b600080fd5b6000601f19601f8301169050919050565b7f4163636f756e74206e6f7420417574686f72697a656400000000000000000000600082015250565b7f4f776e61626c653a206e6577206f776e657220697320746865207a65726f206160008201527f6464726573730000000000000000000000000000000000000000000000000000602082015250565b7f4163636f756e74206e6f74206120557365720000000000000000000000000000600082015250565b7f41646d696e20646f6573206e6f74206578697374000000000000000000000000600082015250565b7f46756e6374696f6e206d7573742062652063616c6c6564207468726f7567682060008201527f64656c656761746563616c6c0000000000000000000000000000000000000000602082015250565b7f46756e6374696f6e206d7573742062652063616c6c6564207468726f7567682060008201527f6163746976652070726f78790000000000000000000000000000000000000000602082015250565b7f4164647265737320686173206265656e2057686974656c697374656400000000600082015250565b7f555550535570677261646561626c653a206d757374206e6f742062652063616c60008201527f6c6564207468726f7567682064656c656761746563616c6c0000000000000000602082015250565b7f5061757361626c653a2070617573656400000000000000000000000000000000600082015250565b7f45524331393637557067726164653a20756e737570706f727465642070726f7860008201527f6961626c65555549440000000000000000000000000000000000000000000000602082015250565b7f496e697469616c697a61626c653a20636f6e747261637420697320616c72656160008201527f647920696e697469616c697a6564000000000000000000000000000000000000602082015250565b7f5573657220616c726561647920426c61636b4c69737465640000000000000000600082015250565b7f45524331393637557067726164653a206e657720696d706c656d656e7461746960008201527f6f6e206973206e6f742055555053000000000000000000000000000000000000602082015250565b7f455243313936373a206e657720696d706c656d656e746174696f6e206973206e60008201527f6f74206120636f6e747261637400000000000000000000000000000000000000602082015250565b7f4f776e61626c653a2063616c6c6572206973206e6f7420746865206f776e6572600082015250565b7f4163636f756e7420616c726561647920617574686f72697a6564000000000000600082015250565b7f4e6f2070726f7669646564206163636f756e7400000000000000000000000000600082015250565b7f416464726573733a2064656c65676174652063616c6c20746f206e6f6e2d636f60008201527f6e74726163740000000000000000000000000000000000000000000000000000602082015250565b7f41646472657373206e6f742061204c6973746564205573657200000000000000600082015250565b7f496e697469616c697a61626c653a20636f6e7472616374206973206e6f74206960008201527f6e697469616c697a696e67000000000000000000000000000000000000000000602082015250565b7f4163636f756e7420616c72656164792041646d696e0000000000000000000000600082015250565b6142d181613be1565b81146142dc57600080fd5b50565b6142e881613bff565b81146142f357600080fd5b5056fe416464726573733a206c6f772d6c6576656c2064656c65676174652063616c6c206661696c6564a26469706673582212208e0eef35b5b80430dd61baa509d8cd7993798c0b3f59dbe74cd8abc32b9a4af464736f6c63430008070033",
  "immutableReferences": {
    "727": [
      {
        "length": 32,
        "start": 3308
      },
      {
        "length": 32,
        "start": 3451
      },
      {
        "length": 32,
        "start": 3734
      },
      {
        "length": 32,
        "start": 3877
      },
      {
        "length": 32,
        "start": 4053
      }
    ]
  },
  "source": "// SPDX-License-Identifier: MIT\npragma solidity ^0.8.0;\n\nimport \"@openzeppelin/contracts-upgradeable/proxy/utils/Initializable.sol\";\nimport \"@openzeppelin/contracts-upgradeable/access/OwnableUpgradeable.sol\";\nimport \"@openzeppelin/contracts-upgradeable/security/PausableUpgradeable.sol\";\n\nimport \"@openzeppelin/contracts-upgradeable/proxy/utils/UUPSUpgradeable.sol\";\n\n/**\n * @dev Contract module for user management.\n *\n * This module is used through inheritance. It will make available the contract\n * addresses of users, admin, whitelisting and blacklisting of users.\n */\ncontract Operations is Initializable, OwnableUpgradeable, PausableUpgradeable, UUPSUpgradeable {\n    // To Check and Balance the System Account.\n    uint256 internal _totalIssued;\n    uint256 internal _totalRedeemed;\n\n    address[] private admins;\n    address[] private authorizers;\n    address[] private usersList;\n    address[] private blackList;\n\n    mapping(address => bool) public isAdmin;\n    mapping(address => bool) public isAuthorizer;\n    mapping(address => bool) public isUserListed;\n    mapping(address => bool) public isBlackListed;\n\n    event AddedAdmin(address indexed _admin);\n    event RemovedAdmin(address indexed _admin);\n    event AddedAuthorizer(address indexed _authorizer);\n    event RemovedAuthorizer(address indexed _authorizer);\n    event SetAddressList(address indexed _user);\n    event RemoveAddressList(address _user);\n    event AddedBlackList(address _user);\n    event RemovedBlackList(address _user);\n    event DestroyedBlackFunds(address _User, uint256 _amount);\n\n    modifier isAdminAddr(address _admin) {\n        require(isAdmin[_admin], \"Admin does not exist\");\n        _;\n    }\n\n    modifier notAdmin(address admin) {\n        require(!isAdmin[admin], \"Account already Admin\");\n        _;\n    }\n\n    modifier isAuthorizerAddr(address authorizer) {\n        require(isAuthorizer[authorizer], \"Account not Authorized\");\n        _;\n    }\n\n    modifier notAuthorizer(address authorizer) {\n        require(!isAuthorizer[authorizer], \"Account already authorized\");\n        _;\n    }\n\n    modifier notNull(address _address) {\n        require(_address != address(0x0), \"No provided account\");\n        _;\n    }\n\n    modifier checkUserList(address _user) {\n        require(isUserListed[_user], \"Account not a User\");\n        _;\n    }\n\n     /// @custom:oz-upgrades-unsafe-allow constructor\n    constructor() {\n        _disableInitializers();\n    }\n    \n\n    function initialize()\n    public initializer\n     {\n         __Ownable_init();\n         __Pausable_init();\n        isUserListed[_msgSender()] = true;\n        usersList.push(_msgSender());\n\n        AddAdmin(_msgSender());\n        AddAuthorizer(_msgSender());\n    }\n\n    //adds address as admin and also authorizers the address\n    function AddAdmin(address _AdminID)\n        public\n        onlyOwner\n        notAdmin(_AdminID)\n        checkUserList(_AdminID)\n        whenNotPaused\n        returns (bool)\n    {\n        admins.push(_AdminID);\n        isAdmin[_AdminID] = true;\n\n        emit AddedAdmin(_AdminID);\n\n        return true;\n    }\n\n    //Removes and Admin\n    function RemoveAdmin(address _addr)\n        public\n        onlyOwner\n        isAdminAddr(_addr)\n        returns (bool)\n    {\n        for (uint256 i = 0; i < admins.length - 1; i++)\n            if (admins[i] == _addr) {\n                admins[i] = admins[admins.length - 1];\n                break;\n            }\n        admins.pop();\n        isAdmin[_addr] = false;\n\n        emit RemovedAdmin(_addr);\n\n        return true;\n    }\n\n    //Get all listed Admins on the System\n    function GetAdminList()\n        public\n        view\n        isAdminAddr(_msgSender())\n        returns (address[] memory)\n    {\n        return admins;\n    }\n\n    //Authorizer Rights and Functions\n    function AddAuthorizer(address authorizer)\n        public\n        onlyOwner\n        checkUserList(authorizer)\n        notAuthorizer(authorizer)\n        whenNotPaused\n        returns (bool)\n    {\n        isAuthorizer[authorizer] = true;\n        authorizers.push(authorizer);\n\n        emit AddedAuthorizer(authorizer);\n\n        return true;\n    }\n\n    // Remove authorizer\n    function RemoveAuthorizer(address _authorizer)\n        public\n        onlyOwner\n        isAuthorizerAddr(_authorizer)\n        returns (bool)\n    {\n        for (uint256 i = 0; i < authorizers.length - 1; i++)\n            if (authorizers[i] == _authorizer) {\n                authorizers[i] = authorizers[authorizers.length - 1];\n                break;\n            }\n        authorizers.pop();\n        isAuthorizer[_authorizer] = false;\n\n        emit RemovedAuthorizer(_authorizer);\n\n        return true;\n    }\n\n    // Get all listed authorizers on the System\n    function GetAuthorizerList()\n        public\n        view\n        isAdminAddr(_msgSender())\n        returns (address[] memory)\n    {\n        return authorizers;\n    }\n\n    // List users on the System\n    function SetUserList(address _addr)\n        public\n        isAdminAddr(_msgSender())\n        notNull(_addr)\n        whenNotPaused\n        returns (bool)\n    {\n        require(isUserListed[_addr] != true, \"Address has been Whitelisted\");\n        isUserListed[_addr] = true;\n        usersList.push(_addr);\n\n        emit SetAddressList(_addr);\n\n        return true;\n    }\n\n    // Remove users from whitelist\n    function RemoveUserList(address _addr)\n        public\n        isAdminAddr(_msgSender())\n        notNull(_addr)\n        returns (bool)\n    {\n        require(isUserListed[_addr], \"Address not a Listed User\");\n\n        if (isAdmin[_addr]) {\n            RemoveAdmin(_addr);\n        }\n\n        for (uint256 i = 0; i < usersList.length - 1; i++)\n            if (usersList[i] == _addr) {\n                usersList[i] = usersList[usersList.length - 1];\n                break;\n            }\n        usersList.pop();\n        isUserListed[_addr] = false;\n\n        emit RemoveAddressList(_addr);\n\n        return true;\n    }\n\n    //check if user is listed\n    function CheckUserList(address _addr)\n        public\n        view\n        returns (bool)\n    {\n        return isUserListed[_addr];\n    }\n\n    //Get all listed users in the System\n    function GetUsersList()\n        public\n        view\n        isAdminAddr(_msgSender())\n        returns (address[] memory)\n    {\n        return usersList;\n    }\n\n    // Add adress to BlackList\n    function AddBlackList(address _evilUser)\n        public\n        isAdminAddr(_msgSender())\n        checkUserList(_evilUser)\n    {\n        require(!isBlackListed[_evilUser], \"User already BlackListed\");\n\n        if (isAdmin[_evilUser]) {\n            RemoveAdmin(_evilUser);\n        }\n        if (isAuthorizer[_evilUser]) {\n            RemoveAuthorizer(_evilUser);\n        }\n\n        blackList.push(_evilUser);\n        isBlackListed[_evilUser] = true;\n\n        emit AddedBlackList(_evilUser);\n    }\n\n    // Remove Address from BlackList\n    function RemoveBlackList(address _clearedUser)\n        public\n        isAdminAddr(_msgSender())\n        notNull(_clearedUser)\n        returns (bool)\n    {\n        require(isBlackListed[_clearedUser], \"Address not a Listed User\");\n\n        for (uint256 i = 0; i < usersList.length - 1; i++)\n            if (blackList[i] == _clearedUser) {\n                blackList[i] = blackList[blackList.length - 1];\n                break;\n            }\n        blackList.pop();\n        isBlackListed[_clearedUser] = false;\n\n        emit RemovedBlackList(_clearedUser);\n\n        return true;\n    }\n\n    //check if address is blacklisted\n    function isBlackListedAddress(address _addr)\n        public\n        view\n        returns (bool)\n    {\n        return isBlackListed[_addr];\n    }\n\n    //Get all who is blacklisted on the System\n    function GetBlackListed()\n        public\n        view\n        returns (address[] memory)\n    {\n        return blackList;\n    }\n\n    function _authorizeUpgrade(address newImplementation)\n        internal\n        onlyOwner\n        override\n    {}\n\n}\n",
  "sourcePath": "/Users/jesudarajeminusi/ConvexityProjs/pepp/pepp-gnosis/contracts/Operations.sol",
  "compiler": {
    "name": "solc",
    "version": "0.8.7+commit.e28d00a7.Emscripten.clang"
  },
  "schemaVersion": "3.4.6",
  "updatedAt": "2023-09-16T12:05:16.842Z",
  "networkType": "ethereum",
  "devdoc": {
    "details": "Contract module for user management. This module is used through inheritance. It will make available the contract addresses of users, admin, whitelisting and blacklisting of users.",
    "kind": "dev",
    "methods": {
      "constructor": {
        "custom:oz-upgrades-unsafe-allow": "constructor"
      },
      "owner()": {
        "details": "Returns the address of the current owner."
      },
      "paused()": {
        "details": "Returns true if the contract is paused, and false otherwise."
      },
      "proxiableUUID()": {
        "details": "Implementation of the ERC1822 {proxiableUUID} function. This returns the storage slot used by the implementation. It is used to validate the implementation's compatibility when performing an upgrade. IMPORTANT: A proxy pointing at a proxiable contract should not be considered proxiable itself, because this risks bricking a proxy that upgrades to it, by delegating to itself until out of gas. Thus it is critical that this function revert if invoked through a proxy. This is guaranteed by the `notDelegated` modifier."
      },
      "renounceOwnership()": {
        "details": "Leaves the contract without owner. It will not be possible to call `onlyOwner` functions anymore. Can only be called by the current owner. NOTE: Renouncing ownership will leave the contract without an owner, thereby removing any functionality that is only available to the owner."
      },
      "transferOwnership(address)": {
        "details": "Transfers ownership of the contract to a new account (`newOwner`). Can only be called by the current owner."
      },
      "upgradeTo(address)": {
        "details": "Upgrade the implementation of the proxy to `newImplementation`. Calls {_authorizeUpgrade}. Emits an {Upgraded} event."
      },
      "upgradeToAndCall(address,bytes)": {
        "details": "Upgrade the implementation of the proxy to `newImplementation`, and subsequently execute the function call encoded in `data`. Calls {_authorizeUpgrade}. Emits an {Upgraded} event."
      }
    },
    "version": 1
  },
  "userdoc": {
    "kind": "user",
    "methods": {},
    "version": 1
  }
}