{
  "contractName": "Pepp",
  "abi": [
    {
      "inputs": [],
      "stateMutability": "nonpayable",
      "type": "constructor"
    },
    {
      "anonymous": false,
      "inputs": [
        {
          "indexed": false,
          "internalType": "address",
          "name": "previousAdmin",
          "type": "address"
        },
        {
          "indexed": false,
          "internalType": "address",
          "name": "newAdmin",
          "type": "address"
        }
      ],
      "name": "AdminChanged",
      "type": "event"
    },
    {
      "anonymous": false,
      "inputs": [
        {
          "indexed": true,
          "internalType": "address",
          "name": "owner",
          "type": "address"
        },
        {
          "indexed": true,
          "internalType": "address",
          "name": "spender",
          "type": "address"
        },
        {
          "indexed": false,
          "internalType": "uint256",
          "name": "value",
          "type": "uint256"
        }
      ],
      "name": "Approval",
      "type": "event"
    },
    {
      "anonymous": false,
      "inputs": [
        {
          "indexed": true,
          "internalType": "address",
          "name": "beacon",
          "type": "address"
        }
      ],
      "name": "BeaconUpgraded",
      "type": "event"
    },
    {
      "anonymous": false,
      "inputs": [
        {
          "indexed": false,
          "internalType": "uint8",
          "name": "version",
          "type": "uint8"
        }
      ],
      "name": "Initialized",
      "type": "event"
    },
    {
      "anonymous": false,
      "inputs": [
        {
          "indexed": false,
          "internalType": "uint256",
          "name": "amount",
          "type": "uint256"
        },
        {
          "indexed": true,
          "internalType": "address",
          "name": "mintedTo",
          "type": "address"
        }
      ],
      "name": "Issue",
      "type": "event"
    },
    {
      "anonymous": false,
      "inputs": [
        {
          "indexed": true,
          "internalType": "address",
          "name": "previousOwner",
          "type": "address"
        },
        {
          "indexed": true,
          "internalType": "address",
          "name": "newOwner",
          "type": "address"
        }
      ],
      "name": "OwnershipTransferred",
      "type": "event"
    },
    {
      "anonymous": false,
      "inputs": [
        {
          "indexed": false,
          "internalType": "uint256",
          "name": "feeBasisPoints",
          "type": "uint256"
        },
        {
          "indexed": false,
          "internalType": "uint256",
          "name": "maxFee",
          "type": "uint256"
        }
      ],
      "name": "Params",
      "type": "event"
    },
    {
      "anonymous": false,
      "inputs": [
        {
          "indexed": false,
          "internalType": "address",
          "name": "account",
          "type": "address"
        }
      ],
      "name": "Paused",
      "type": "event"
    },
    {
      "anonymous": false,
      "inputs": [
        {
          "indexed": false,
          "internalType": "uint256",
          "name": "amount",
          "type": "uint256"
        },
        {
          "indexed": true,
          "internalType": "address",
          "name": "redeemedFrom",
          "type": "address"
        }
      ],
      "name": "Redeem",
      "type": "event"
    },
    {
      "anonymous": false,
      "inputs": [
        {
          "indexed": false,
          "internalType": "uint256",
          "name": "id",
          "type": "uint256"
        }
      ],
      "name": "Snapshot",
      "type": "event"
    },
    {
      "anonymous": false,
      "inputs": [
        {
          "indexed": true,
          "internalType": "address",
          "name": "from",
          "type": "address"
        },
        {
          "indexed": true,
          "internalType": "address",
          "name": "to",
          "type": "address"
        },
        {
          "indexed": false,
          "internalType": "uint256",
          "name": "value",
          "type": "uint256"
        }
      ],
      "name": "Transfer",
      "type": "event"
    },
    {
      "anonymous": false,
      "inputs": [
        {
          "indexed": false,
          "internalType": "address",
          "name": "account",
          "type": "address"
        }
      ],
      "name": "Unpaused",
      "type": "event"
    },
    {
      "anonymous": false,
      "inputs": [
        {
          "indexed": true,
          "internalType": "address",
          "name": "implementation",
          "type": "address"
        }
      ],
      "name": "Upgraded",
      "type": "event"
    },
    {
      "inputs": [
        {
          "internalType": "address",
          "name": "owner",
          "type": "address"
        },
        {
          "internalType": "address",
          "name": "spender",
          "type": "address"
        }
      ],
      "name": "allowance",
      "outputs": [
        {
          "internalType": "uint256",
          "name": "",
          "type": "uint256"
        }
      ],
      "stateMutability": "view",
      "type": "function",
      "constant": true
    },
    {
      "inputs": [
        {
          "internalType": "address",
          "name": "spender",
          "type": "address"
        },
        {
          "internalType": "uint256",
          "name": "amount",
          "type": "uint256"
        }
      ],
      "name": "approve",
      "outputs": [
        {
          "internalType": "bool",
          "name": "",
          "type": "bool"
        }
      ],
      "stateMutability": "nonpayable",
      "type": "function"
    },
    {
      "inputs": [
        {
          "internalType": "address",
          "name": "account",
          "type": "address"
        }
      ],
      "name": "balanceOf",
      "outputs": [
        {
          "internalType": "uint256",
          "name": "",
          "type": "uint256"
        }
      ],
      "stateMutability": "view",
      "type": "function",
      "constant": true
    },
    {
      "inputs": [
        {
          "internalType": "address",
          "name": "account",
          "type": "address"
        },
        {
          "internalType": "uint256",
          "name": "snapshotId",
          "type": "uint256"
        }
      ],
      "name": "balanceOfAt",
      "outputs": [
        {
          "internalType": "uint256",
          "name": "",
          "type": "uint256"
        }
      ],
      "stateMutability": "view",
      "type": "function",
      "constant": true
    },
    {
      "inputs": [],
      "name": "basisPointsRate",
      "outputs": [
        {
          "internalType": "uint256",
          "name": "",
          "type": "uint256"
        }
      ],
      "stateMutability": "view",
      "type": "function",
      "constant": true
    },
    {
      "inputs": [
        {
          "internalType": "uint256",
          "name": "amount",
          "type": "uint256"
        }
      ],
      "name": "burn",
      "outputs": [],
      "stateMutability": "nonpayable",
      "type": "function"
    },
    {
      "inputs": [
        {
          "internalType": "address",
          "name": "account",
          "type": "address"
        },
        {
          "internalType": "uint256",
          "name": "amount",
          "type": "uint256"
        }
      ],
      "name": "burnFrom",
      "outputs": [],
      "stateMutability": "nonpayable",
      "type": "function"
    },
    {
      "inputs": [
        {
          "internalType": "address",
          "name": "spender",
          "type": "address"
        },
        {
          "internalType": "uint256",
          "name": "subtractedValue",
          "type": "uint256"
        }
      ],
      "name": "decreaseAllowance",
      "outputs": [
        {
          "internalType": "bool",
          "name": "",
          "type": "bool"
        }
      ],
      "stateMutability": "nonpayable",
      "type": "function"
    },
    {
      "inputs": [
        {
          "internalType": "address",
          "name": "spender",
          "type": "address"
        },
        {
          "internalType": "uint256",
          "name": "addedValue",
          "type": "uint256"
        }
      ],
      "name": "increaseAllowance",
      "outputs": [
        {
          "internalType": "bool",
          "name": "",
          "type": "bool"
        }
      ],
      "stateMutability": "nonpayable",
      "type": "function"
    },
    {
      "inputs": [],
      "name": "maximumFee",
      "outputs": [
        {
          "internalType": "uint256",
          "name": "",
          "type": "uint256"
        }
      ],
      "stateMutability": "view",
      "type": "function",
      "constant": true
    },
    {
      "inputs": [],
      "name": "name",
      "outputs": [
        {
          "internalType": "string",
          "name": "",
          "type": "string"
        }
      ],
      "stateMutability": "view",
      "type": "function",
      "constant": true
    },
    {
      "inputs": [],
      "name": "operations",
      "outputs": [
        {
          "internalType": "contract Operations",
          "name": "",
          "type": "address"
        }
      ],
      "stateMutability": "view",
      "type": "function",
      "constant": true
    },
    {
      "inputs": [],
      "name": "owner",
      "outputs": [
        {
          "internalType": "address",
          "name": "",
          "type": "address"
        }
      ],
      "stateMutability": "view",
      "type": "function",
      "constant": true
    },
    {
      "inputs": [],
      "name": "paused",
      "outputs": [
        {
          "internalType": "bool",
          "name": "",
          "type": "bool"
        }
      ],
      "stateMutability": "view",
      "type": "function",
      "constant": true
    },
    {
      "inputs": [],
      "name": "proxiableUUID",
      "outputs": [
        {
          "internalType": "bytes32",
          "name": "",
          "type": "bytes32"
        }
      ],
      "stateMutability": "view",
      "type": "function",
      "constant": true
    },
    {
      "inputs": [],
      "name": "renounceOwnership",
      "outputs": [],
      "stateMutability": "nonpayable",
      "type": "function"
    },
    {
      "inputs": [],
      "name": "symbol",
      "outputs": [
        {
          "internalType": "string",
          "name": "",
          "type": "string"
        }
      ],
      "stateMutability": "view",
      "type": "function",
      "constant": true
    },
    {
      "inputs": [],
      "name": "totalIssued",
      "outputs": [
        {
          "internalType": "uint256",
          "name": "",
          "type": "uint256"
        }
      ],
      "stateMutability": "view",
      "type": "function",
      "constant": true
    },
    {
      "inputs": [],
      "name": "totalRedeemed",
      "outputs": [
        {
          "internalType": "uint256",
          "name": "",
          "type": "uint256"
        }
      ],
      "stateMutability": "view",
      "type": "function",
      "constant": true
    },
    {
      "inputs": [],
      "name": "totalSupply",
      "outputs": [
        {
          "internalType": "uint256",
          "name": "",
          "type": "uint256"
        }
      ],
      "stateMutability": "view",
      "type": "function",
      "constant": true
    },
    {
      "inputs": [
        {
          "internalType": "uint256",
          "name": "snapshotId",
          "type": "uint256"
        }
      ],
      "name": "totalSupplyAt",
      "outputs": [
        {
          "internalType": "uint256",
          "name": "",
          "type": "uint256"
        }
      ],
      "stateMutability": "view",
      "type": "function",
      "constant": true
    },
    {
      "inputs": [
        {
          "internalType": "address",
          "name": "newOwner",
          "type": "address"
        }
      ],
      "name": "transferOwnership",
      "outputs": [],
      "stateMutability": "nonpayable",
      "type": "function"
    },
    {
      "inputs": [
        {
          "internalType": "address",
          "name": "newImplementation",
          "type": "address"
        }
      ],
      "name": "upgradeTo",
      "outputs": [],
      "stateMutability": "nonpayable",
      "type": "function"
    },
    {
      "inputs": [
        {
          "internalType": "address",
          "name": "newImplementation",
          "type": "address"
        },
        {
          "internalType": "bytes",
          "name": "data",
          "type": "bytes"
        }
      ],
      "name": "upgradeToAndCall",
      "outputs": [],
      "stateMutability": "payable",
      "type": "function",
      "payable": true
    },
    {
      "inputs": [
        {
          "internalType": "address",
          "name": "_operations",
          "type": "address"
        }
      ],
      "name": "initialize",
      "outputs": [],
      "stateMutability": "nonpayable",
      "type": "function"
    },
    {
      "inputs": [],
      "name": "snapshot",
      "outputs": [],
      "stateMutability": "nonpayable",
      "type": "function"
    },
    {
      "inputs": [],
      "name": "pause",
      "outputs": [],
      "stateMutability": "nonpayable",
      "type": "function"
    },
    {
      "inputs": [],
      "name": "unpause",
      "outputs": [],
      "stateMutability": "nonpayable",
      "type": "function"
    },
    {
      "inputs": [],
      "name": "decimals",
      "outputs": [
        {
          "internalType": "uint8",
          "name": "",
          "type": "uint8"
        }
      ],
      "stateMutability": "pure",
      "type": "function",
      "constant": true
    },
    {
      "inputs": [
        {
          "internalType": "uint256",
          "name": "_amount",
          "type": "uint256"
        },
        {
          "internalType": "address",
          "name": "_mintedTo",
          "type": "address"
        }
      ],
      "name": "mint",
      "outputs": [],
      "stateMutability": "nonpayable",
      "type": "function"
    },
    {
      "inputs": [
        {
          "internalType": "uint256",
          "name": "_amount",
          "type": "uint256"
        }
      ],
      "name": "redeem",
      "outputs": [],
      "stateMutability": "nonpayable",
      "type": "function"
    },
    {
      "inputs": [
        {
          "internalType": "uint256",
          "name": "newBasisPoints",
          "type": "uint256"
        },
        {
          "internalType": "uint256",
          "name": "newMaxFee",
          "type": "uint256"
        }
      ],
      "name": "setParams",
      "outputs": [],
      "stateMutability": "nonpayable",
      "type": "function"
    },
    {
      "inputs": [
        {
          "internalType": "address",
          "name": "_to",
          "type": "address"
        },
        {
          "internalType": "uint256",
          "name": "_value",
          "type": "uint256"
        }
      ],
      "name": "transfer",
      "outputs": [
        {
          "internalType": "bool",
          "name": "",
          "type": "bool"
        }
      ],
      "stateMutability": "nonpayable",
      "type": "function"
    },
    {
      "inputs": [
        {
          "internalType": "address",
          "name": "_from",
          "type": "address"
        },
        {
          "internalType": "address",
          "name": "_to",
          "type": "address"
        },
        {
          "internalType": "uint256",
          "name": "_value",
          "type": "uint256"
        }
      ],
      "name": "transferFrom",
      "outputs": [
        {
          "internalType": "bool",
          "name": "",
          "type": "bool"
        }
      ],
      "stateMutability": "nonpayable",
      "type": "function"
    }
  ],
  "bytecode": "0x60a06040523073ffffffffffffffffffffffffffffffffffffffff1660809073ffffffffffffffffffffffffffffffffffffffff1660601b8152503480156200004757600080fd5b50620000586200005e60201b60201c565b62000209565b600060019054906101000a900460ff1615620000b1576040517f08c379a0000000000000000000000000000000000000000000000000000000008152600401620000a8906200015d565b60405180910390fd5b60ff801660008054906101000a900460ff1660ff161015620001235760ff6000806101000a81548160ff021916908360ff1602179055507f7f26b83ff96e1f2b6a682f133852f6798a09c465da95921460cefb384740249860ff6040516200011a91906200017f565b60405180910390a15b565b6000620001346027836200019c565b91506200014182620001ba565b604082019050919050565b6200015781620001ad565b82525050565b60006020820190508181036000830152620001788162000125565b9050919050565b60006020820190506200019660008301846200014c565b92915050565b600082825260208201905092915050565b600060ff82169050919050565b7f496e697469616c697a61626c653a20636f6e747261637420697320696e69746960008201527f616c697a696e6700000000000000000000000000000000000000000000000000602082015250565b60805160601c614e876200024460003960008181610a4301528181610ad201528181610c9901528181610d280152610dd80152614e876000f3fe6080604052600436106101f95760003560e01c80638456cb591161010d578063a9059cbb116100a0578063dd62ed3e1161006f578063dd62ed3e14610700578063dd644f721461073d578063f2fde38b14610768578063f35dad4014610791578063f5be3193146107bc576101f9565b8063a9059cbb14610648578063c0324c7714610685578063c4d66de8146106ae578063db006a75146106d7576101f9565b806395d89b41116100dc57806395d89b411461058c5780639711715a146105b7578063981b24d0146105ce578063a457c2d71461060b576101f9565b80638456cb59146104f65780638b33b4b21461050d5780638da5cb5b1461053857806394bf804d14610563576101f9565b80633f4ba83a1161019057806352d1902d1161015f57806352d1902d146104235780635c975abb1461044e57806370a0823114610479578063715018a6146104b657806379cc6790146104cd576101f9565b80633f4ba83a1461038a57806342966c68146103a15780634ee2cd7e146103ca5780634f1ef28614610407576101f9565b8063313ce567116101cc578063313ce567146102ce57806335390714146102f95780633659cfe614610324578063395093511461034d576101f9565b806306fdde03146101fe578063095ea7b31461022957806318160ddd1461026657806323b872dd14610291575b600080fd5b34801561020a57600080fd5b506102136107e7565b6040516102209190613c2d565b60405180910390f35b34801561023557600080fd5b50610250600480360381019061024b9190613538565b610879565b60405161025d9190613bc1565b60405180910390f35b34801561027257600080fd5b5061027b61089c565b604051610288919061402f565b60405180910390f35b34801561029d57600080fd5b506102b860048036038101906102b39190613489565b6108a6565b6040516102c59190613bc1565b60405180910390f35b3480156102da57600080fd5b506102e3610a31565b6040516102f09190614073565b60405180910390f35b34801561030557600080fd5b5061030e610a3a565b60405161031b919061402f565b60405180910390f35b34801561033057600080fd5b5061034b6004803603810190610346919061341c565b610a41565b005b34801561035957600080fd5b50610374600480360381019061036f9190613538565b610bca565b6040516103819190613bc1565b60405180910390f35b34801561039657600080fd5b5061039f610c01565b005b3480156103ad57600080fd5b506103c860048036038101906103c391906135d2565b610c13565b005b3480156103d657600080fd5b506103f160048036038101906103ec9190613538565b610c27565b6040516103fe919061402f565b60405180910390f35b610421600480360381019061041c91906134dc565b610c97565b005b34801561042f57600080fd5b50610438610dd4565b6040516104459190613bdc565b60405180910390f35b34801561045a57600080fd5b50610463610e8d565b6040516104709190613bc1565b60405180910390f35b34801561048557600080fd5b506104a0600480360381019061049b919061341c565b610ea4565b6040516104ad919061402f565b60405180910390f35b3480156104c257600080fd5b506104cb610eed565b005b3480156104d957600080fd5b506104f460048036038101906104ef9190613538565b610f01565b005b34801561050257600080fd5b5061050b610f21565b005b34801561051957600080fd5b50610522610f33565b60405161052f9190613bf7565b60405180910390f35b34801561054457600080fd5b5061054d610f5a565b60405161055a9190613ba6565b60405180910390f35b34801561056f57600080fd5b5061058a600480360381019061058591906135ff565b610f84565b005b34801561059857600080fd5b506105a1611101565b6040516105ae9190613c2d565b60405180910390f35b3480156105c357600080fd5b506105cc611193565b005b3480156105da57600080fd5b506105f560048036038101906105f091906135d2565b6111a6565b604051610602919061402f565b60405180910390f35b34801561061757600080fd5b50610632600480360381019061062d9190613538565b6111d7565b60405161063f9190613bc1565b60405180910390f35b34801561065457600080fd5b5061066f600480360381019061066a9190613538565b61124e565b60405161067c9190613bc1565b60405180910390f35b34801561069157600080fd5b506106ac60048036038101906106a7919061363f565b6113ce565b005b3480156106ba57600080fd5b506106d560048036038101906106d0919061341c565b6114d4565b005b3480156106e357600080fd5b506106fe60048036038101906106f991906135d2565b6116f1565b005b34801561070c57600080fd5b5061072760048036038101906107229190613449565b611906565b604051610734919061402f565b60405180910390f35b34801561074957600080fd5b5061075261198d565b60405161075f919061402f565b60405180910390f35b34801561077457600080fd5b5061078f600480360381019061078a919061341c565b611994565b005b34801561079d57600080fd5b506107a6611a18565b6040516107b3919061402f565b60405180910390f35b3480156107c857600080fd5b506107d1611a1f565b6040516107de919061402f565b60405180910390f35b6060603680546107f690614485565b80601f016020809104026020016040519081016040528092919081815260200182805461082290614485565b801561086f5780601f106108445761010080835404028352916020019161086f565b820191906000526020600020905b81548152906001019060200180831161085257829003601f168201915b5050505050905090565b600080610884611a26565b9050610891818585611a2e565b600191505092915050565b6000603554905090565b60006101c360009054906101000a900473ffffffffffffffffffffffffffffffffffffffff1673ffffffffffffffffffffffffffffffffffffffff1663b33fde1b846040518263ffffffff1660e01b81526004016109049190613ba6565b60206040518083038186803b15801561091c57600080fd5b505afa158015610930573d6000803e3d6000fd5b505050506040513d601f19601f820116820180604052508101906109549190613578565b15610994576040517f08c379a000000000000000000000000000000000000000000000000000000000815260040161098b90613d6f565b60405180910390fd5b60006109c06127106109b26101c45486611bf990919063ffffffff16565b611c0f90919063ffffffff16565b90506101c5548111156109d4576101c55490505b60008111156109f0576109ef856109e9610f5a565b83611c25565b5b60006109fa611a26565b9050610a07868286611ea0565b610a248686610a1f8588611f2c90919063ffffffff16565b611c25565b6001925050509392505050565b60006006905090565b6101c55481565b7f000000000000000000000000000000000000000000000000000000000000000073ffffffffffffffffffffffffffffffffffffffff163073ffffffffffffffffffffffffffffffffffffffff161415610ad0576040517f08c379a0000000000000000000000000000000000000000000000000000000008152600401610ac790613d0f565b60405180910390fd5b7f000000000000000000000000000000000000000000000000000000000000000073ffffffffffffffffffffffffffffffffffffffff16610b0f611f42565b73ffffffffffffffffffffffffffffffffffffffff1614610b65576040517f08c379a0000000000000000000000000000000000000000000000000000000008152600401610b5c90613d8f565b60405180910390fd5b610b6e81611f99565b610bc781600067ffffffffffffffff811115610b8d57610b8c6145a4565b5b6040519080825280601f01601f191660200182016040528015610bbf5781602001600182028036833780820191505090505b506000611fa4565b50565b600080610bd5611a26565b9050610bf6818585610be78589611906565b610bf19190614116565b611a2e565b600191505092915050565b610c09612121565b610c1161219f565b565b610c24610c1e611a26565b82612202565b50565b6000806000610c7484609760008873ffffffffffffffffffffffffffffffffffffffff1673ffffffffffffffffffffffffffffffffffffffff1681526020019081526020016000206123d2565b9150915081610c8b57610c8685610ea4565b610c8d565b805b9250505092915050565b7f000000000000000000000000000000000000000000000000000000000000000073ffffffffffffffffffffffffffffffffffffffff163073ffffffffffffffffffffffffffffffffffffffff161415610d26576040517f08c379a0000000000000000000000000000000000000000000000000000000008152600401610d1d90613d0f565b60405180910390fd5b7f000000000000000000000000000000000000000000000000000000000000000073ffffffffffffffffffffffffffffffffffffffff16610d65611f42565b73ffffffffffffffffffffffffffffffffffffffff1614610dbb576040517f08c379a0000000000000000000000000000000000000000000000000000000008152600401610db290613d8f565b60405180910390fd5b610dc482611f99565b610dd082826001611fa4565b5050565b60007f000000000000000000000000000000000000000000000000000000000000000073ffffffffffffffffffffffffffffffffffffffff163073ffffffffffffffffffffffffffffffffffffffff1614610e64576040517f08c379a0000000000000000000000000000000000000000000000000000000008152600401610e5b90613dcf565b60405180910390fd5b7f360894a13ba1a3210667c828492db98dca3e2076cc3735a920a3ca505d382bbc60001b905090565b600060fb60009054906101000a900460ff16905090565b6000603360008373ffffffffffffffffffffffffffffffffffffffff1673ffffffffffffffffffffffffffffffffffffffff168152602001908152602001600020549050919050565b610ef5612121565b610eff60006124c8565b565b610f1382610f0d611a26565b83611ea0565b610f1d8282612202565b5050565b610f29612121565b610f3161258e565b565b6101c360009054906101000a900473ffffffffffffffffffffffffffffffffffffffff1681565b600060c960009054906101000a900473ffffffffffffffffffffffffffffffffffffffff16905090565b610f8c6125f1565b610f94612121565b6101c360009054906101000a900473ffffffffffffffffffffffffffffffffffffffff1673ffffffffffffffffffffffffffffffffffffffff1663b33fde1b826040518263ffffffff1660e01b8152600401610ff09190613ba6565b60206040518083038186803b15801561100857600080fd5b505afa15801561101c573d6000803e3d6000fd5b505050506040513d601f19601f820116820180604052508101906110409190613578565b15611080576040517f08c379a000000000000000000000000000000000000000000000000000000000815260040161107790613d6f565b60405180910390fd5b61108a8183612643565b6110a0826101c65461279b90919063ffffffff16565b6101c6819055508073ffffffffffffffffffffffffffffffffffffffff167fc790a174b576e850809e673168b703c3f5480d1c662f57ea2c08f08a17d509c6836040516110ed919061402f565b60405180910390a26110fd6127b1565b5050565b60606037805461111090614485565b80601f016020809104026020016040519081016040528092919081815260200182805461113c90614485565b80156111895780601f1061115e57610100808354040283529160200191611189565b820191906000526020600020905b81548152906001019060200180831161116c57829003601f168201915b5050505050905090565b61119b612121565b6111a36127bc565b50565b60008060006111b68460986123d2565b91509150816111cc576111c761089c565b6111ce565b805b92505050919050565b6000806111e2611a26565b905060006111f08286611906565b905083811015611235576040517f08c379a000000000000000000000000000000000000000000000000000000000815260040161122c90613fef565b60405180910390fd5b6112428286868403611a2e565b60019250505092915050565b60006101c360009054906101000a900473ffffffffffffffffffffffffffffffffffffffff1673ffffffffffffffffffffffffffffffffffffffff1663b33fde1b846040518263ffffffff1660e01b81526004016112ac9190613ba6565b60206040518083038186803b1580156112c457600080fd5b505afa1580156112d8573d6000803e3d6000fd5b505050506040513d601f19601f820116820180604052508101906112fc9190613578565b1561133c576040517f08c379a000000000000000000000000000000000000000000000000000000000815260040161133390613d6f565b60405180910390fd5b600061136861271061135a6101c45486611bf990919063ffffffff16565b611c0f90919063ffffffff16565b90506101c55481111561137c576101c55490505b600081111561139f5761139e611390611a26565b611398610f5a565b83611c25565b5b6113c36113aa611a26565b856113be8487611f2c90919063ffffffff16565b611c25565b600191505092915050565b6113d6612121565b60c88210611419576040517f08c379a000000000000000000000000000000000000000000000000000000000815260040161141090613e0f565b60405180910390fd5b6005811061145c576040517f08c379a000000000000000000000000000000000000000000000000000000000815260040161145390613ecf565b60405180910390fd5b816101c48190555061148a61146f610a31565b600a61147b91906141f0565b82611bf990919063ffffffff16565b6101c5819055507fb044a1e409eac5c48e5af22d4af52670dd1a99059537a78b31b48c6500a6354e6101c4546101c5546040516114c892919061404a565b60405180910390a15050565b60008060019054906101000a900460ff161590508080156115055750600160008054906101000a900460ff1660ff16105b80611532575061151430612812565b1580156115315750600160008054906101000a900460ff1660ff16145b5b611571576040517f08c379a000000000000000000000000000000000000000000000000000000000815260040161156890613e4f565b60405180910390fd5b60016000806101000a81548160ff021916908360ff16021790555080156115ae576001600060016101000a81548160ff0219169083151502179055505b6116226040518060400160405280600481526020017f50455050000000000000000000000000000000000000000000000000000000008152506040518060400160405280600381526020017f5045500000000000000000000000000000000000000000000000000000000000815250612835565b61162a612892565b6116326128e3565b61163a612934565b61164261298d565b61164a6129e6565b611652612a37565b816101c360006101000a81548173ffffffffffffffffffffffffffffffffffffffff021916908373ffffffffffffffffffffffffffffffffffffffff16021790555080156116ed5760008060016101000a81548160ff0219169083151502179055507f7f26b83ff96e1f2b6a682f133852f6798a09c465da95921460cefb384740249860016040516116e49190613c12565b60405180910390a15b5050565b6101c360009054906101000a900473ffffffffffffffffffffffffffffffffffffffff1673ffffffffffffffffffffffffffffffffffffffff1663b33fde1b611738611a26565b6040518263ffffffff1660e01b81526004016117549190613ba6565b60206040518083038186803b15801561176c57600080fd5b505afa158015611780573d6000803e3d6000fd5b505050506040513d601f19601f820116820180604052508101906117a49190613578565b156117e4576040517f08c379a00000000000000000000000000000000000000000000000000000000081526004016117db90613d6f565b60405180910390fd5b806117ed61089c565b101561182e576040517f08c379a000000000000000000000000000000000000000000000000000000000815260040161182590613daf565b60405180910390fd5b8061183f61183a611a26565b610ea4565b1015611880576040517f08c379a000000000000000000000000000000000000000000000000000000000815260040161187790613faf565b60405180910390fd5b61189161188b611a26565b82612202565b6118a7816101c75461279b90919063ffffffff16565b6101c7819055506118b6611a26565b73ffffffffffffffffffffffffffffffffffffffff167fa03c990ba6466f1dc61a4d2e15fd72bafaf2244fa2421b01ceaba3ff09e8e630826040516118fb919061402f565b60405180910390a250565b6000603460008473ffffffffffffffffffffffffffffffffffffffff1673ffffffffffffffffffffffffffffffffffffffff16815260200190815260200160002060008373ffffffffffffffffffffffffffffffffffffffff1673ffffffffffffffffffffffffffffffffffffffff16815260200190815260200160002054905092915050565b6101c45481565b61199c612121565b600073ffffffffffffffffffffffffffffffffffffffff168173ffffffffffffffffffffffffffffffffffffffff161415611a0c576040517f08c379a0000000000000000000000000000000000000000000000000000000008152600401611a0390613ccf565b60405180910390fd5b611a15816124c8565b50565b6101c75481565b6101c65481565b600033905090565b600073ffffffffffffffffffffffffffffffffffffffff168373ffffffffffffffffffffffffffffffffffffffff161415611a9e576040517f08c379a0000000000000000000000000000000000000000000000000000000008152600401611a9590613f4f565b60405180910390fd5b600073ffffffffffffffffffffffffffffffffffffffff168273ffffffffffffffffffffffffffffffffffffffff161415611b0e576040517f08c379a0000000000000000000000000000000000000000000000000000000008152600401611b0590613cef565b60405180910390fd5b80603460008573ffffffffffffffffffffffffffffffffffffffff1673ffffffffffffffffffffffffffffffffffffffff16815260200190815260200160002060008473ffffffffffffffffffffffffffffffffffffffff1673ffffffffffffffffffffffffffffffffffffffff168152602001908152602001600020819055508173ffffffffffffffffffffffffffffffffffffffff168373ffffffffffffffffffffffffffffffffffffffff167f8c5be1e5ebec7d5bd14f71427d1e84f3dd0314c0f7b2291e5b200ac8c7c3b92583604051611bec919061402f565b60405180910390a3505050565b60008183611c07919061430e565b905092915050565b60008183611c1d919061416c565b905092915050565b600073ffffffffffffffffffffffffffffffffffffffff168373ffffffffffffffffffffffffffffffffffffffff161415611c95576040517f08c379a0000000000000000000000000000000000000000000000000000000008152600401611c8c90613f2f565b60405180910390fd5b600073ffffffffffffffffffffffffffffffffffffffff168273ffffffffffffffffffffffffffffffffffffffff161415611d05576040517f08c379a0000000000000000000000000000000000000000000000000000000008152600401611cfc90613c6f565b60405180910390fd5b611d10838383612a90565b6000603360008573ffffffffffffffffffffffffffffffffffffffff1673ffffffffffffffffffffffffffffffffffffffff16815260200190815260200160002054905081811015611d97576040517f08c379a0000000000000000000000000000000000000000000000000000000008152600401611d8e90613d4f565b60405180910390fd5b818103603360008673ffffffffffffffffffffffffffffffffffffffff1673ffffffffffffffffffffffffffffffffffffffff1681526020019081526020016000208190555081603360008573ffffffffffffffffffffffffffffffffffffffff1673ffffffffffffffffffffffffffffffffffffffff168152602001908152602001600020600082825401925050819055508273ffffffffffffffffffffffffffffffffffffffff168473ffffffffffffffffffffffffffffffffffffffff167fddf252ad1be2c89b69c2b068fc378daa952ba7f163c4a11628f55a4df523b3ef84604051611e87919061402f565b60405180910390a3611e9a848484612aa8565b50505050565b6000611eac8484611906565b90507fffffffffffffffffffffffffffffffffffffffffffffffffffffffffffffffff8114611f265781811015611f18576040517f08c379a0000000000000000000000000000000000000000000000000000000008152600401611f0f90613d2f565b60405180910390fd5b611f258484848403611a2e565b5b50505050565b60008183611f3a9190614368565b905092915050565b6000611f707f360894a13ba1a3210667c828492db98dca3e2076cc3735a920a3ca505d382bbc60001b612aad565b60000160009054906101000a900473ffffffffffffffffffffffffffffffffffffffff16905090565b611fa1612121565b50565b611fd07f4910fdfa16fed3260ed0e7147f7cc6da11a60208b5b9406d12a635614ffd914360001b612ab7565b60000160009054906101000a900460ff1615611ff457611fef83612ac1565b61211c565b8273ffffffffffffffffffffffffffffffffffffffff166352d1902d6040518163ffffffff1660e01b815260040160206040518083038186803b15801561203a57600080fd5b505afa92505050801561206b57506040513d601f19601f8201168201806040525081019061206891906135a5565b60015b6120aa576040517f08c379a00000000000000000000000000000000000000000000000000000000081526004016120a190613e6f565b60405180910390fd5b7f360894a13ba1a3210667c828492db98dca3e2076cc3735a920a3ca505d382bbc60001b811461210f576040517f08c379a000000000000000000000000000000000000000000000000000000000815260040161210690613e2f565b60405180910390fd5b5061211b838383612b7a565b5b505050565b612129611a26565b73ffffffffffffffffffffffffffffffffffffffff16612147610f5a565b73ffffffffffffffffffffffffffffffffffffffff161461219d576040517f08c379a000000000000000000000000000000000000000000000000000000000815260040161219490613eaf565b60405180910390fd5b565b6121a7612ba6565b600060fb60006101000a81548160ff0219169083151502179055507f5db9ee0a495bf2e6ff9c91a7834c1ba4fdd244a5e8aa4e537bd38aeae4b073aa6121eb611a26565b6040516121f89190613ba6565b60405180910390a1565b600073ffffffffffffffffffffffffffffffffffffffff168273ffffffffffffffffffffffffffffffffffffffff161415612272576040517f08c379a000000000000000000000000000000000000000000000000000000000815260040161226990613eef565b60405180910390fd5b61227e82600083612a90565b6000603360008473ffffffffffffffffffffffffffffffffffffffff1673ffffffffffffffffffffffffffffffffffffffff16815260200190815260200160002054905081811015612305576040517f08c379a00000000000000000000000000000000000000000000000000000000081526004016122fc90613caf565b60405180910390fd5b818103603360008573ffffffffffffffffffffffffffffffffffffffff1673ffffffffffffffffffffffffffffffffffffffff1681526020019081526020016000208190555081603560008282540392505081905550600073ffffffffffffffffffffffffffffffffffffffff168373ffffffffffffffffffffffffffffffffffffffff167fddf252ad1be2c89b69c2b068fc378daa952ba7f163c4a11628f55a4df523b3ef846040516123b9919061402f565b60405180910390a36123cd83600084612aa8565b505050565b60008060008411612418576040517f08c379a000000000000000000000000000000000000000000000000000000000815260040161240f90613f8f565b60405180910390fd5b612420612bef565b841115612462576040517f08c379a000000000000000000000000000000000000000000000000000000000815260040161245990613c4f565b60405180910390fd5b600061247a8585600001612c0090919063ffffffff16565b905083600001805490508114156124985760008092509250506124c1565b60018460010182815481106124b0576124af614575565b5b906000526020600020015492509250505b9250929050565b600060c960009054906101000a900473ffffffffffffffffffffffffffffffffffffffff1690508160c960006101000a81548173ffffffffffffffffffffffffffffffffffffffff021916908373ffffffffffffffffffffffffffffffffffffffff1602179055508173ffffffffffffffffffffffffffffffffffffffff168173ffffffffffffffffffffffffffffffffffffffff167f8be0079c531659141344cd1fd0a4f28419497f9722a3daafe3b4186f6b6457e060405160405180910390a35050565b612596612cba565b600160fb60006101000a81548160ff0219169083151502179055507f62e78cea01bee320cd4e420270b5ea74000d11b0c9f74754ebdbfc544b05a2586125da611a26565b6040516125e79190613ba6565b60405180910390a1565b6002610191541415612638576040517f08c379a000000000000000000000000000000000000000000000000000000000815260040161262f90613fcf565b60405180910390fd5b600261019181905550565b600073ffffffffffffffffffffffffffffffffffffffff168273ffffffffffffffffffffffffffffffffffffffff1614156126b3576040517f08c379a00000000000000000000000000000000000000000000000000000000081526004016126aa9061400f565b60405180910390fd5b6126bf60008383612a90565b80603560008282546126d19190614116565b9250508190555080603360008473ffffffffffffffffffffffffffffffffffffffff1673ffffffffffffffffffffffffffffffffffffffff168152602001908152602001600020600082825401925050819055508173ffffffffffffffffffffffffffffffffffffffff16600073ffffffffffffffffffffffffffffffffffffffff167fddf252ad1be2c89b69c2b068fc378daa952ba7f163c4a11628f55a4df523b3ef83604051612783919061402f565b60405180910390a361279760008383612aa8565b5050565b600081836127a99190614116565b905092915050565b600161019181905550565b60006127c8609a612d04565b60006127d2612bef565b90507f8030e83b04d87bef53480e26263266d6ca66863aa8506aca6f2559d18aa1cb6781604051612803919061402f565b60405180910390a18091505090565b6000808273ffffffffffffffffffffffffffffffffffffffff163b119050919050565b600060019054906101000a900460ff16612884576040517f08c379a000000000000000000000000000000000000000000000000000000000815260040161287b90613f6f565b60405180910390fd5b61288e8282612d1a565b5050565b600060019054906101000a900460ff166128e1576040517f08c379a00000000000000000000000000000000000000000000000000000000081526004016128d890613f6f565b60405180910390fd5b565b600060019054906101000a900460ff16612932576040517f08c379a000000000000000000000000000000000000000000000000000000000815260040161292990613f6f565b60405180910390fd5b565b600060019054906101000a900460ff16612983576040517f08c379a000000000000000000000000000000000000000000000000000000000815260040161297a90613f6f565b60405180910390fd5b61298b612d9b565b565b600060019054906101000a900460ff166129dc576040517f08c379a00000000000000000000000000000000000000000000000000000000081526004016129d390613f6f565b60405180910390fd5b6129e4612dfc565b565b600060019054906101000a900460ff16612a35576040517f08c379a0000000000000000000000000000000000000000000000000000000008152600401612a2c90613f6f565b60405180910390fd5b565b600060019054906101000a900460ff16612a86576040517f08c379a0000000000000000000000000000000000000000000000000000000008152600401612a7d90613f6f565b60405180910390fd5b612a8e612e68565b565b612a98612cba565b612aa3838383612ec2565b505050565b505050565b6000819050919050565b6000819050919050565b612aca81612812565b612b09576040517f08c379a0000000000000000000000000000000000000000000000000000000008152600401612b0090613e8f565b60405180910390fd5b80612b367f360894a13ba1a3210667c828492db98dca3e2076cc3735a920a3ca505d382bbc60001b612aad565b60000160006101000a81548173ffffffffffffffffffffffffffffffffffffffff021916908373ffffffffffffffffffffffffffffffffffffffff16021790555050565b612b8383612f7c565b600082511180612b905750805b15612ba157612b9f8383612fcb565b505b505050565b612bae610e8d565b612bed576040517f08c379a0000000000000000000000000000000000000000000000000000000008152600401612be490613c8f565b60405180910390fd5b565b6000612bfb609a6130af565b905090565b60008083805490501415612c175760009050612cb4565b600080848054905090505b80821015612c6b576000612c3683836130bd565b905084612c4387836130e3565b600001541115612c5557809150612c65565b600181612c629190614116565b92505b50612c22565b600082118015612c93575083612c8d86600185612c889190614368565b6130e3565b60000154145b15612cae57600182612ca59190614368565b92505050612cb4565b81925050505b92915050565b612cc2610e8d565b15612d02576040517f08c379a0000000000000000000000000000000000000000000000000000000008152600401612cf990613def565b60405180910390fd5b565b6001816000016000828254019250508190555050565b600060019054906101000a900460ff16612d69576040517f08c379a0000000000000000000000000000000000000000000000000000000008152600401612d6090613f6f565b60405180910390fd5b8160369080519060200190612d7f9291906132b5565b508060379080519060200190612d969291906132b5565b505050565b600060019054906101000a900460ff16612dea576040517f08c379a0000000000000000000000000000000000000000000000000000000008152600401612de190613f6f565b60405180910390fd5b612dfa612df5611a26565b6124c8565b565b600060019054906101000a900460ff16612e4b576040517f08c379a0000000000000000000000000000000000000000000000000000000008152600401612e4290613f6f565b60405180910390fd5b600060fb60006101000a81548160ff021916908315150217905550565b600060019054906101000a900460ff16612eb7576040517f08c379a0000000000000000000000000000000000000000000000000000000008152600401612eae90613f6f565b60405180910390fd5b600161019181905550565b612ecd838383613105565b600073ffffffffffffffffffffffffffffffffffffffff168373ffffffffffffffffffffffffffffffffffffffff161415612f1857612f0b8261310a565b612f1361315d565b612f77565b600073ffffffffffffffffffffffffffffffffffffffff168273ffffffffffffffffffffffffffffffffffffffff161415612f6357612f568361310a565b612f5e61315d565b612f76565b612f6c8361310a565b612f758261310a565b5b5b505050565b612f8581612ac1565b8073ffffffffffffffffffffffffffffffffffffffff167fbc7cd75a20ee27fd9adebab32041f755214dbc6bffa90cc0225b39da2e5c2d3b60405160405180910390a250565b6060612fd683612812565b613015576040517f08c379a000000000000000000000000000000000000000000000000000000000815260040161300c90613f0f565b60405180910390fd5b6000808473ffffffffffffffffffffffffffffffffffffffff168460405161303d9190613b8f565b600060405180830381855af49150503d8060008114613078576040519150601f19603f3d011682016040523d82523d6000602084013e61307d565b606091505b50915091506130a58282604051806060016040528060278152602001614e2b60279139613171565b9250505092915050565b600081600001549050919050565b600060028284186130ce919061416c565b8284166130db9190614116565b905092915050565b600080836000528260206000200190506130fc81613193565b91505092915050565b505050565b61315a609760008373ffffffffffffffffffffffffffffffffffffffff1673ffffffffffffffffffffffffffffffffffffffff16815260200190815260200160002061315583610ea4565b61319d565b50565b61316f609861316a61089c565b61319d565b565b606083156131815782905061318c565b61318b8383613218565b5b9392505050565b6000819050919050565b60006131a7612bef565b9050806131b684600001613268565b10156132135782600001819080600181540180825580915050600190039060005260206000200160009091909190915055826001018290806001815401808255809150506001900390600052602060002001600090919091909150555b505050565b60008251111561322b5781518083602001fd5b806040517f08c379a000000000000000000000000000000000000000000000000000000000815260040161325f9190613c2d565b60405180910390fd5b6000808280549050141561327f57600090506132b0565b81600183805490506132919190614368565b815481106132a2576132a1614575565b5b906000526020600020015490505b919050565b8280546132c190614485565b90600052602060002090601f0160209004810192826132e3576000855561332a565b82601f106132fc57805160ff191683800117855561332a565b8280016001018555821561332a579182015b8281111561332957825182559160200191906001019061330e565b5b509050613337919061333b565b5090565b5b8082111561335457600081600090555060010161333c565b5090565b600061336b613366846140b3565b61408e565b905082815260208101848484011115613387576133866145d8565b5b613392848285614443565b509392505050565b6000813590506133a981614dce565b92915050565b6000815190506133be81614de5565b92915050565b6000815190506133d381614dfc565b92915050565b600082601f8301126133ee576133ed6145d3565b5b81356133fe848260208601613358565b91505092915050565b60008135905061341681614e13565b92915050565b600060208284031215613432576134316145e2565b5b60006134408482850161339a565b91505092915050565b600080604083850312156134605761345f6145e2565b5b600061346e8582860161339a565b925050602061347f8582860161339a565b9150509250929050565b6000806000606084860312156134a2576134a16145e2565b5b60006134b08682870161339a565b93505060206134c18682870161339a565b92505060406134d286828701613407565b9150509250925092565b600080604083850312156134f3576134f26145e2565b5b60006135018582860161339a565b925050602083013567ffffffffffffffff811115613522576135216145dd565b5b61352e858286016133d9565b9150509250929050565b6000806040838503121561354f5761354e6145e2565b5b600061355d8582860161339a565b925050602061356e85828601613407565b9150509250929050565b60006020828403121561358e5761358d6145e2565b5b600061359c848285016133af565b91505092915050565b6000602082840312156135bb576135ba6145e2565b5b60006135c9848285016133c4565b91505092915050565b6000602082840312156135e8576135e76145e2565b5b60006135f684828501613407565b91505092915050565b60008060408385031215613616576136156145e2565b5b600061362485828601613407565b92505060206136358582860161339a565b9150509250929050565b60008060408385031215613656576136556145e2565b5b600061366485828601613407565b925050602061367585828601613407565b9150509250929050565b6136888161439c565b82525050565b613697816143ae565b82525050565b6136a6816143ba565b82525050565b60006136b7826140e4565b6136c181856140fa565b93506136d1818560208601614452565b80840191505092915050565b6136e6816143fb565b82525050565b6136f58161440d565b82525050565b6000613706826140ef565b6137108185614105565b9350613720818560208601614452565b613729816145e7565b840191505092915050565b6000613741601d83614105565b915061374c82614605565b602082019050919050565b6000613764602383614105565b915061376f8261462e565b604082019050919050565b6000613787601483614105565b91506137928261467d565b602082019050919050565b60006137aa602283614105565b91506137b5826146a6565b604082019050919050565b60006137cd602683614105565b91506137d8826146f5565b604082019050919050565b60006137f0602283614105565b91506137fb82614744565b604082019050919050565b6000613813602c83614105565b915061381e82614793565b604082019050919050565b6000613836601d83614105565b9150613841826147e2565b602082019050919050565b6000613859602683614105565b91506138648261480b565b604082019050919050565b600061387c601683614105565b91506138878261485a565b602082019050919050565b600061389f602c83614105565b91506138aa82614883565b604082019050919050565b60006138c2602083614105565b91506138cd826148d2565b602082019050919050565b60006138e5603883614105565b91506138f0826148fb565b604082019050919050565b6000613908601083614105565b91506139138261494a565b602082019050919050565b600061392b602883614105565b915061393682614973565b604082019050919050565b600061394e602983614105565b9150613959826149c2565b604082019050919050565b6000613971602e83614105565b915061397c82614a11565b604082019050919050565b6000613994602e83614105565b915061399f82614a60565b604082019050919050565b60006139b7602d83614105565b91506139c282614aaf565b604082019050919050565b60006139da602083614105565b91506139e582614afe565b602082019050919050565b60006139fd601e83614105565b9150613a0882614b27565b602082019050919050565b6000613a20602183614105565b9150613a2b82614b50565b604082019050919050565b6000613a43602683614105565b9150613a4e82614b9f565b604082019050919050565b6000613a66602583614105565b9150613a7182614bee565b604082019050919050565b6000613a89602483614105565b9150613a9482614c3d565b604082019050919050565b6000613aac602b83614105565b9150613ab782614c8c565b604082019050919050565b6000613acf601683614105565b9150613ada82614cdb565b602082019050919050565b6000613af2601b83614105565b9150613afd82614d04565b602082019050919050565b6000613b15601f83614105565b9150613b2082614d2d565b602082019050919050565b6000613b38602583614105565b9150613b4382614d56565b604082019050919050565b6000613b5b601f83614105565b9150613b6682614da5565b602082019050919050565b613b7a816143e4565b82525050565b613b89816143ee565b82525050565b6000613b9b82846136ac565b915081905092915050565b6000602082019050613bbb600083018461367f565b92915050565b6000602082019050613bd6600083018461368e565b92915050565b6000602082019050613bf1600083018461369d565b92915050565b6000602082019050613c0c60008301846136dd565b92915050565b6000602082019050613c2760008301846136ec565b92915050565b60006020820190508181036000830152613c4781846136fb565b905092915050565b60006020820190508181036000830152613c6881613734565b9050919050565b60006020820190508181036000830152613c8881613757565b9050919050565b60006020820190508181036000830152613ca88161377a565b9050919050565b60006020820190508181036000830152613cc88161379d565b9050919050565b60006020820190508181036000830152613ce8816137c0565b9050919050565b60006020820190508181036000830152613d08816137e3565b9050919050565b60006020820190508181036000830152613d2881613806565b9050919050565b60006020820190508181036000830152613d4881613829565b9050919050565b60006020820190508181036000830152613d688161384c565b9050919050565b60006020820190508181036000830152613d888161386f565b9050919050565b60006020820190508181036000830152613da881613892565b9050919050565b60006020820190508181036000830152613dc8816138b5565b9050919050565b60006020820190508181036000830152613de8816138d8565b9050919050565b60006020820190508181036000830152613e08816138fb565b9050919050565b60006020820190508181036000830152613e288161391e565b9050919050565b60006020820190508181036000830152613e4881613941565b9050919050565b60006020820190508181036000830152613e6881613964565b9050919050565b60006020820190508181036000830152613e8881613987565b9050919050565b60006020820190508181036000830152613ea8816139aa565b9050919050565b60006020820190508181036000830152613ec8816139cd565b9050919050565b60006020820190508181036000830152613ee8816139f0565b9050919050565b60006020820190508181036000830152613f0881613a13565b9050919050565b60006020820190508181036000830152613f2881613a36565b9050919050565b60006020820190508181036000830152613f4881613a59565b9050919050565b60006020820190508181036000830152613f6881613a7c565b9050919050565b60006020820190508181036000830152613f8881613a9f565b9050919050565b60006020820190508181036000830152613fa881613ac2565b9050919050565b60006020820190508181036000830152613fc881613ae5565b9050919050565b60006020820190508181036000830152613fe881613b08565b9050919050565b6000602082019050818103600083015261400881613b2b565b9050919050565b6000602082019050818103600083015261402881613b4e565b9050919050565b60006020820190506140446000830184613b71565b92915050565b600060408201905061405f6000830185613b71565b61406c6020830184613b71565b9392505050565b60006020820190506140886000830184613b80565b92915050565b60006140986140a9565b90506140a482826144b7565b919050565b6000604051905090565b600067ffffffffffffffff8211156140ce576140cd6145a4565b5b6140d7826145e7565b9050602081019050919050565b600081519050919050565b600081519050919050565b600081905092915050565b600082825260208201905092915050565b6000614121826143e4565b915061412c836143e4565b9250827fffffffffffffffffffffffffffffffffffffffffffffffffffffffffffffffff03821115614161576141606144e8565b5b828201905092915050565b6000614177826143e4565b9150614182836143e4565b92508261419257614191614517565b5b828204905092915050565b6000808291508390505b60018511156141e7578086048111156141c3576141c26144e8565b5b60018516156141d25780820291505b80810290506141e0856145f8565b94506141a7565b94509492505050565b60006141fb826143e4565b9150614206836143ee565b92506142337fffffffffffffffffffffffffffffffffffffffffffffffffffffffffffffffff848461423b565b905092915050565b60008261424b5760019050614307565b816142595760009050614307565b816001811461426f5760028114614279576142a8565b6001915050614307565b60ff84111561428b5761428a6144e8565b5b8360020a9150848211156142a2576142a16144e8565b5b50614307565b5060208310610133831016604e8410600b84101617156142dd5782820a9050838111156142d8576142d76144e8565b5b614307565b6142ea848484600161419d565b92509050818404811115614301576143006144e8565b5b81810290505b9392505050565b6000614319826143e4565b9150614324836143e4565b9250817fffffffffffffffffffffffffffffffffffffffffffffffffffffffffffffffff048311821515161561435d5761435c6144e8565b5b828202905092915050565b6000614373826143e4565b915061437e836143e4565b925082821015614391576143906144e8565b5b828203905092915050565b60006143a7826143c4565b9050919050565b60008115159050919050565b6000819050919050565b600073ffffffffffffffffffffffffffffffffffffffff82169050919050565b6000819050919050565b600060ff82169050919050565b60006144068261441f565b9050919050565b6000614418826143ee565b9050919050565b600061442a82614431565b9050919050565b600061443c826143c4565b9050919050565b82818337600083830152505050565b60005b83811015614470578082015181840152602081019050614455565b8381111561447f576000848401525b50505050565b6000600282049050600182168061449d57607f821691505b602082108114156144b1576144b0614546565b5b50919050565b6144c0826145e7565b810181811067ffffffffffffffff821117156144df576144de6145a4565b5b80604052505050565b7f4e487b7100000000000000000000000000000000000000000000000000000000600052601160045260246000fd5b7f4e487b7100000000000000000000000000000000000000000000000000000000600052601260045260246000fd5b7f4e487b7100000000000000000000000000000000000000000000000000000000600052602260045260246000fd5b7f4e487b7100000000000000000000000000000000000000000000000000000000600052603260045260246000fd5b7f4e487b7100000000000000000000000000000000000000000000000000000000600052604160045260246000fd5b600080fd5b600080fd5b600080fd5b600080fd5b6000601f19601f8301169050919050565b60008160011c9050919050565b7f4552433230536e617073686f743a206e6f6e6578697374656e74206964000000600082015250565b7f45524332303a207472616e7366657220746f20746865207a65726f206164647260008201527f6573730000000000000000000000000000000000000000000000000000000000602082015250565b7f5061757361626c653a206e6f7420706175736564000000000000000000000000600082015250565b7f45524332303a206275726e20616d6f756e7420657863656564732062616c616e60008201527f6365000000000000000000000000000000000000000000000000000000000000602082015250565b7f4f776e61626c653a206e6577206f776e657220697320746865207a65726f206160008201527f6464726573730000000000000000000000000000000000000000000000000000602082015250565b7f45524332303a20617070726f766520746f20746865207a65726f20616464726560008201527f7373000000000000000000000000000000000000000000000000000000000000602082015250565b7f46756e6374696f6e206d7573742062652063616c6c6564207468726f7567682060008201527f64656c656761746563616c6c0000000000000000000000000000000000000000602082015250565b7f45524332303a20696e73756666696369656e7420616c6c6f77616e6365000000600082015250565b7f45524332303a207472616e7366657220616d6f756e742065786365656473206260008201527f616c616e63650000000000000000000000000000000000000000000000000000602082015250565b7f4163636f756e7420697320426c61636b4c697374656400000000000000000000600082015250565b7f46756e6374696f6e206d7573742062652063616c6c6564207468726f7567682060008201527f6163746976652070726f78790000000000000000000000000000000000000000602082015250565b7f546f74616c20737570706c79206973206c657373207468616e20616d6f756e74600082015250565b7f555550535570677261646561626c653a206d757374206e6f742062652063616c60008201527f6c6564207468726f7567682064656c656761746563616c6c0000000000000000602082015250565b7f5061757361626c653a2070617573656400000000000000000000000000000000600082015250565b7f46656520626173697320706f696e74732073686f756c64206265206c6573732060008201527f7468616e20323030000000000000000000000000000000000000000000000000602082015250565b7f45524331393637557067726164653a20756e737570706f727465642070726f7860008201527f6961626c65555549440000000000000000000000000000000000000000000000602082015250565b7f496e697469616c697a61626c653a20636f6e747261637420697320616c72656160008201527f647920696e697469616c697a6564000000000000000000000000000000000000602082015250565b7f45524331393637557067726164653a206e657720696d706c656d656e7461746960008201527f6f6e206973206e6f742055555053000000000000000000000000000000000000602082015250565b7f455243313936373a206e657720696d706c656d656e746174696f6e206973206e60008201527f6f74206120636f6e747261637400000000000000000000000000000000000000602082015250565b7f4f776e61626c653a2063616c6c6572206973206e6f7420746865206f776e6572600082015250565b7f4d6178206665652073686f756c64206265206c657373207468616e2035300000600082015250565b7f45524332303a206275726e2066726f6d20746865207a65726f2061646472657360008201527f7300000000000000000000000000000000000000000000000000000000000000602082015250565b7f416464726573733a2064656c65676174652063616c6c20746f206e6f6e2d636f60008201527f6e74726163740000000000000000000000000000000000000000000000000000602082015250565b7f45524332303a207472616e736665722066726f6d20746865207a65726f20616460008201527f6472657373000000000000000000000000000000000000000000000000000000602082015250565b7f45524332303a20617070726f76652066726f6d20746865207a65726f2061646460008201527f7265737300000000000000000000000000000000000000000000000000000000602082015250565b7f496e697469616c697a61626c653a20636f6e7472616374206973206e6f74206960008201527f6e697469616c697a696e67000000000000000000000000000000000000000000602082015250565b7f4552433230536e617073686f743a206964206973203000000000000000000000600082015250565b7f42616c616e6365206973206c657373207468616e20616d6f756e740000000000600082015250565b7f5265656e7472616e637947756172643a207265656e7472616e742063616c6c00600082015250565b7f45524332303a2064656372656173656420616c6c6f77616e63652062656c6f7760008201527f207a65726f000000000000000000000000000000000000000000000000000000602082015250565b7f45524332303a206d696e7420746f20746865207a65726f206164647265737300600082015250565b614dd78161439c565b8114614de257600080fd5b50565b614dee816143ae565b8114614df957600080fd5b50565b614e05816143ba565b8114614e1057600080fd5b50565b614e1c816143e4565b8114614e2757600080fd5b5056fe416464726573733a206c6f772d6c6576656c2064656c65676174652063616c6c206661696c6564a264697066735822122052e101fe2401592d1a77cf950311f5977f3315ecf2ba8970310106efeac277e864736f6c63430008070033",
  "immutableReferences": {
    "727": [
      {
        "length": 32,
        "start": 2627
      },
      {
        "length": 32,
        "start": 2770
      },
      {
        "length": 32,
        "start": 3225
      },
      {
        "length": 32,
        "start": 3368
      },
      {
        "length": 32,
        "start": 3544
      }
    ]
  },
  "source": "// SPDX-License-Identifier: MIT\npragma solidity ^0.8.0;\n\nimport \"@openzeppelin/contracts/utils/math/SafeMath.sol\";\nimport \"@openzeppelin/contracts-upgradeable/token/ERC20/ERC20Upgradeable.sol\";\nimport \"@openzeppelin/contracts-upgradeable/token/ERC20/extensions/ERC20BurnableUpgradeable.sol\";\nimport \"@openzeppelin/contracts-upgradeable/token/ERC20/extensions/ERC20SnapshotUpgradeable.sol\";\nimport \"@openzeppelin/contracts-upgradeable/access/OwnableUpgradeable.sol\";\nimport \"@openzeppelin/contracts-upgradeable/security/PausableUpgradeable.sol\";\nimport \"@openzeppelin/contracts-upgradeable/proxy/utils/Initializable.sol\";\nimport \"@openzeppelin/contracts-upgradeable/proxy/utils/UUPSUpgradeable.sol\";\nimport \"@openzeppelin/contracts-upgradeable/security/ReentrancyGuardUpgradeable.sol\";\nimport \"./Operations.sol\";\n\n/// @custom:security-contact charles@withconvexity.com\ncontract Pepp is Initializable, ERC20Upgradeable, ERC20BurnableUpgradeable, ERC20SnapshotUpgradeable, OwnableUpgradeable, PausableUpgradeable, UUPSUpgradeable, ReentrancyGuardUpgradeable {\n   using SafeMath for uint256;\n    Operations public operations;\n\n    /// @custom:oz-upgrades-unsafe-allow constructor\n    constructor() {\n        _disableInitializers();\n    }\n    \n    event Issue(uint256 amount, address indexed mintedTo);\n    event Redeem(uint256 amount, address indexed redeemedFrom);\n    event Params(uint256 feeBasisPoints, uint256 maxFee);\n\n    uint256 public basisPointsRate;\n    uint256 public maximumFee;\n    uint256 public totalIssued;\n    uint256 public totalRedeemed; \n\n    /**\n     * @dev Fix for the ERC20 short address attack.\n     */\n    modifier onlyPayloadSize(uint256 size) {\n        require(!(msg.data.length < size + 4));\n        _;\n    }\n    \n\n    function initialize(address _operations) initializer public {\n        __ERC20_init(\"PEPP\", \"PEP\");\n        __ERC20Burnable_init();\n        __ERC20Snapshot_init();\n        __Ownable_init();\n        __Pausable_init();\n        __UUPSUpgradeable_init();\n        __ReentrancyGuard_init();\n        operations = Operations(_operations);\n        uint256 basisPointsRate = 0;\n        uint256 maximumFee = 0;\n    }\n\n    function snapshot() public onlyOwner {\n        _snapshot();\n    }\n\n    function pause() public onlyOwner {\n        _pause();\n    }\n\n    function unpause() public onlyOwner {\n        _unpause();\n    }\n    function decimals() public pure override returns (uint8) {\n        return 6;\n    }\n\n    /**\n     * Issue a new amount of tokens these tokens are deposited into the owner address\n     * This is for issuing of token to the user or the beneficiary of the NGO\n     * @param _amount Number of tokens to be issued\n     */\n    function mint(uint256 _amount, address _mintedTo)\n    public\n    nonReentrant\n    onlyOwner\n    {\n        // require(operations.CheckUserList(_mintedTo), \"User is not allowed to receive tokens\");\n        require(!operations.isBlackListedAddress(_mintedTo), \"Account is BlackListed\");\n        _mint(_mintedTo, _amount);\n        totalIssued = totalIssued.add(_amount);\n        emit Issue(_amount, _mintedTo);\n    }\n\n    /**\n     * Redeem tokens.\n     * These tokens are withdrawn from the owner address. the balance must be enough to cover the redeem\n     * or the call will fail.\n     *\n     * @param _amount Number of tokens to be issued\n     */\n    function redeem(uint256 _amount) \n    public \n    {\n        // require(operations.CheckUserList(_msgSender()), \"User is not allowed to receive tokens\");\n        require(!operations.isBlackListedAddress(_msgSender()), \"Account is BlackListed\");\n        require(totalSupply() >= _amount, \"Total supply is less than amount\");\n        require(balanceOf(_msgSender()) >= _amount, \"Balance is less than amount\");\n        _burn(_msgSender(), _amount);\n        totalRedeemed = totalRedeemed.add(_amount);\n        emit Redeem(_amount, _msgSender());\n    }\n\n    function setParams(uint256 newBasisPoints, uint256 newMaxFee)\n        public\n        onlyOwner\n    {\n        require(newBasisPoints < 200, \"Fee basis points should be less than 200\");\n        require(newMaxFee < 5, \"Max fee should be less than 50\");\n\n        basisPointsRate = newBasisPoints;\n        maximumFee = newMaxFee.mul(10**decimals());\n\n        emit Params(basisPointsRate, maximumFee);\n    }\n\n    /**\n     * @dev transfer token for a specified address\n     * @param _to The address to transfer to.\n     * @param _value The amount to be transferred.\n     */\n    function transfer(address _to, uint256 _value)\n        public\n        override\n        returns (bool)\n    {\n        // require(operations.CheckUserList(_to), \"User is not allowed to receive tokens\");\n        require(!operations.isBlackListedAddress(_to), \"Account is BlackListed\");\n\n        uint256 fee = (_value.mul(basisPointsRate)).div(10000);\n        if (fee > maximumFee) {\n            fee = maximumFee;\n        }\n        if(fee > 0) {\n            _transfer(_msgSender(), owner(), fee);\n        }\n        _transfer(_msgSender(), _to, _value.sub(fee));\n        return true;\n    }\n\n    /**\n     * @dev Transfer tokens from one address to another\n     * @param _from address The address which you want to send tokens from\n     * @param _to address The address which you want to transfer to\n     * @param _value uint the amount of tokens to be transferred\n     */\n    function transferFrom(\n        address _from,\n        address _to,\n        uint256 _value\n    ) public\n        override\n        returns (bool) {\n        // require(operations.CheckUserList(_to), \"User is not allowed to receive tokens\");\n        require(!operations.isBlackListedAddress(_to), \"Account is BlackListed\");\n\n        uint256 fee = (_value.mul(basisPointsRate)).div(10000);\n        if (fee > maximumFee) {\n            fee = maximumFee;\n        }\n        if (fee > 0) {\n            _transfer(_from, owner(), fee);\n        }\n\n        address spender = _msgSender();\n        _spendAllowance(_from, spender, _value);\n        _transfer(_from, _to, _value.sub(fee));\n        return true;\n    }\n\n    function _beforeTokenTransfer(address from, address to, uint256 amount)\n        internal\n        whenNotPaused\n        override(ERC20Upgradeable, ERC20SnapshotUpgradeable)\n    {\n        super._beforeTokenTransfer(from, to, amount);\n    }\n\n    function _authorizeUpgrade(address newImplementation)\n        internal\n        onlyOwner\n        override\n    {}\n}\n",
  "sourcePath": "/Users/jesudarajeminusi/ConvexityProjs/pepp/pepp-gnosis/contracts/Pepp.sol",
  "compiler": {
    "name": "solc",
    "version": "0.8.7+commit.e28d00a7.Emscripten.clang"
  },
  "schemaVersion": "3.4.6",
  "updatedAt": "2023-09-16T12:05:16.800Z",
  "networkType": "ethereum",
  "devdoc": {
    "custom:security-contact": "charles@withconvexity.com",
    "kind": "dev",
    "methods": {
      "allowance(address,address)": {
        "details": "See {IERC20-allowance}."
      },
      "approve(address,uint256)": {
        "details": "See {IERC20-approve}. NOTE: If `amount` is the maximum `uint256`, the allowance is not updated on `transferFrom`. This is semantically equivalent to an infinite approval. Requirements: - `spender` cannot be the zero address."
      },
      "balanceOf(address)": {
        "details": "See {IERC20-balanceOf}."
      },
      "balanceOfAt(address,uint256)": {
        "details": "Retrieves the balance of `account` at the time `snapshotId` was created."
      },
      "burn(uint256)": {
        "details": "Destroys `amount` tokens from the caller. See {ERC20-_burn}."
      },
      "burnFrom(address,uint256)": {
        "details": "Destroys `amount` tokens from `account`, deducting from the caller's allowance. See {ERC20-_burn} and {ERC20-allowance}. Requirements: - the caller must have allowance for ``accounts``'s tokens of at least `amount`."
      },
      "constructor": {
        "custom:oz-upgrades-unsafe-allow": "constructor"
      },
      "decimals()": {
        "details": "Returns the number of decimals used to get its user representation. For example, if `decimals` equals `2`, a balance of `505` tokens should be displayed to a user as `5.05` (`505 / 10 ** 2`). Tokens usually opt for a value of 18, imitating the relationship between Ether and Wei. This is the value {ERC20} uses, unless this function is overridden; NOTE: This information is only used for _display_ purposes: it in no way affects any of the arithmetic of the contract, including {IERC20-balanceOf} and {IERC20-transfer}."
      },
      "decreaseAllowance(address,uint256)": {
        "details": "Atomically decreases the allowance granted to `spender` by the caller. This is an alternative to {approve} that can be used as a mitigation for problems described in {IERC20-approve}. Emits an {Approval} event indicating the updated allowance. Requirements: - `spender` cannot be the zero address. - `spender` must have allowance for the caller of at least `subtractedValue`."
      },
      "increaseAllowance(address,uint256)": {
        "details": "Atomically increases the allowance granted to `spender` by the caller. This is an alternative to {approve} that can be used as a mitigation for problems described in {IERC20-approve}. Emits an {Approval} event indicating the updated allowance. Requirements: - `spender` cannot be the zero address."
      },
      "mint(uint256,address)": {
        "params": {
          "_amount": "Number of tokens to be issued"
        }
      },
      "name()": {
        "details": "Returns the name of the token."
      },
      "owner()": {
        "details": "Returns the address of the current owner."
      },
      "paused()": {
        "details": "Returns true if the contract is paused, and false otherwise."
      },
      "proxiableUUID()": {
        "details": "Implementation of the ERC1822 {proxiableUUID} function. This returns the storage slot used by the implementation. It is used to validate the implementation's compatibility when performing an upgrade. IMPORTANT: A proxy pointing at a proxiable contract should not be considered proxiable itself, because this risks bricking a proxy that upgrades to it, by delegating to itself until out of gas. Thus it is critical that this function revert if invoked through a proxy. This is guaranteed by the `notDelegated` modifier."
      },
      "redeem(uint256)": {
        "params": {
          "_amount": "Number of tokens to be issued"
        }
      },
      "renounceOwnership()": {
        "details": "Leaves the contract without owner. It will not be possible to call `onlyOwner` functions anymore. Can only be called by the current owner. NOTE: Renouncing ownership will leave the contract without an owner, thereby removing any functionality that is only available to the owner."
      },
      "symbol()": {
        "details": "Returns the symbol of the token, usually a shorter version of the name."
      },
      "totalSupply()": {
        "details": "See {IERC20-totalSupply}."
      },
      "totalSupplyAt(uint256)": {
        "details": "Retrieves the total supply at the time `snapshotId` was created."
      },
      "transfer(address,uint256)": {
        "details": "transfer token for a specified address",
        "params": {
          "_to": "The address to transfer to.",
          "_value": "The amount to be transferred."
        }
      },
      "transferFrom(address,address,uint256)": {
        "details": "Transfer tokens from one address to another",
        "params": {
          "_from": "address The address which you want to send tokens from",
          "_to": "address The address which you want to transfer to",
          "_value": "uint the amount of tokens to be transferred"
        }
      },
      "transferOwnership(address)": {
        "details": "Transfers ownership of the contract to a new account (`newOwner`). Can only be called by the current owner."
      },
      "upgradeTo(address)": {
        "details": "Upgrade the implementation of the proxy to `newImplementation`. Calls {_authorizeUpgrade}. Emits an {Upgraded} event."
      },
      "upgradeToAndCall(address,bytes)": {
        "details": "Upgrade the implementation of the proxy to `newImplementation`, and subsequently execute the function call encoded in `data`. Calls {_authorizeUpgrade}. Emits an {Upgraded} event."
      }
    },
    "version": 1
  },
  "userdoc": {
    "kind": "user",
    "methods": {
      "mint(uint256,address)": {
        "notice": "Issue a new amount of tokens these tokens are deposited into the owner address This is for issuing of token to the user or the beneficiary of the NGO"
      },
      "redeem(uint256)": {
        "notice": "Redeem tokens. These tokens are withdrawn from the owner address. the balance must be enough to cover the redeem or the call will fail."
      }
    },
    "version": 1
  }
}